{
  "contractName": "PirateAttack",
  "abi": [
    {
      "constant": false,
      "inputs": [
        {
          "name": "_pirateId",
          "type": "uint256"
        }
      ],
      "name": "levelUp",
      "outputs": [],
      "payable": true,
      "stateMutability": "payable",
      "type": "function"
    },
    {
      "constant": false,
      "inputs": [
        {
          "name": "_tk",
          "type": "address"
        }
      ],
      "name": "setToken",
      "outputs": [],
      "payable": false,
      "stateMutability": "nonpayable",
      "type": "function"
    },
    {
      "constant": true,
      "inputs": [
        {
          "name": "_owner",
          "type": "address"
        }
      ],
      "name": "getPiratesByOwner",
      "outputs": [
        {
          "name": "",
          "type": "uint256[]"
        }
      ],
      "payable": false,
      "stateMutability": "view",
      "type": "function"
    },
    {
      "constant": false,
      "inputs": [],
      "name": "withdraw",
      "outputs": [],
      "payable": false,
      "stateMutability": "nonpayable",
      "type": "function"
    },
    {
      "constant": true,
      "inputs": [],
      "name": "getPiratesLenght",
      "outputs": [
        {
          "name": "",
          "type": "uint256"
        }
      ],
      "payable": false,
      "stateMutability": "view",
      "type": "function"
    },
    {
      "constant": false,
      "inputs": [
        {
          "name": "_pirateId",
          "type": "uint256"
        },
        {
          "name": "_newDna",
          "type": "uint256"
        }
      ],
      "name": "changeDna",
      "outputs": [],
      "payable": false,
      "stateMutability": "nonpayable",
      "type": "function"
    },
    {
      "constant": false,
      "inputs": [
        {
          "name": "_address",
          "type": "address"
        }
      ],
      "name": "setPetContractAddress",
      "outputs": [],
      "payable": false,
      "stateMutability": "nonpayable",
      "type": "function"
    },
    {
      "constant": true,
      "inputs": [],
      "name": "owner",
      "outputs": [
        {
          "name": "",
          "type": "address"
        }
      ],
      "payable": false,
      "stateMutability": "view",
      "type": "function"
    },
    {
      "constant": false,
      "inputs": [
        {
          "name": "_wp",
          "type": "address"
        }
      ],
      "name": "setWeapon",
      "outputs": [],
      "payable": false,
      "stateMutability": "nonpayable",
      "type": "function"
    },
    {
      "constant": true,
      "inputs": [
        {
          "name": "",
          "type": "uint256"
        }
      ],
      "name": "pirates",
      "outputs": [
        {
          "name": "name",
          "type": "string"
        },
        {
          "name": "dna",
          "type": "uint256"
        },
        {
          "name": "level",
          "type": "uint32"
        },
        {
          "name": "readyTime",
          "type": "uint32"
        },
        {
          "name": "winCount",
          "type": "uint16"
        },
        {
          "name": "lossCount",
          "type": "uint16"
        }
      ],
      "payable": false,
      "stateMutability": "view",
      "type": "function"
    },
    {
      "constant": false,
      "inputs": [
        {
          "name": "_pirateId",
          "type": "uint256"
        },
        {
          "name": "_newName",
          "type": "string"
        }
      ],
      "name": "changeName",
      "outputs": [],
      "payable": false,
      "stateMutability": "nonpayable",
      "type": "function"
    },
    {
      "constant": false,
      "inputs": [
        {
          "name": "_fee",
          "type": "uint256"
        }
      ],
      "name": "setLevelUpFee",
      "outputs": [],
      "payable": false,
      "stateMutability": "nonpayable",
      "type": "function"
    },
    {
      "constant": false,
      "inputs": [
        {
          "name": "_name",
          "type": "string"
        }
      ],
      "name": "createRandomPirate",
      "outputs": [],
      "payable": false,
      "stateMutability": "nonpayable",
      "type": "function"
    },
    {
      "constant": true,
      "inputs": [
        {
          "name": "",
          "type": "uint256"
        }
      ],
      "name": "pirateToOwner",
      "outputs": [
        {
          "name": "",
          "type": "address"
        }
      ],
      "payable": false,
      "stateMutability": "view",
      "type": "function"
    },
    {
      "constant": false,
      "inputs": [
        {
          "name": "newOwner",
          "type": "address"
        }
      ],
      "name": "transferOwnership",
      "outputs": [],
      "payable": false,
      "stateMutability": "nonpayable",
      "type": "function"
    },
    {
      "anonymous": false,
      "inputs": [
        {
          "indexed": true,
          "name": "_pirateId",
          "type": "uint256"
        },
        {
          "indexed": false,
          "name": "result",
          "type": "uint256"
        }
      ],
      "name": "attackResult",
      "type": "event"
    },
    {
      "anonymous": false,
      "inputs": [
        {
          "indexed": false,
          "name": "pirateId",
          "type": "uint256"
        },
        {
          "indexed": false,
          "name": "name",
          "type": "string"
        },
        {
          "indexed": false,
          "name": "dna",
          "type": "uint256"
        }
      ],
      "name": "NewPirate",
      "type": "event"
    },
    {
      "anonymous": false,
      "inputs": [
        {
          "indexed": true,
          "name": "previousOwner",
          "type": "address"
        },
        {
          "indexed": true,
          "name": "newOwner",
          "type": "address"
        }
      ],
      "name": "OwnershipTransferred",
      "type": "event"
    },
    {
      "constant": false,
      "inputs": [
        {
          "name": "_pirateId",
          "type": "uint256"
        },
        {
          "name": "_targetId",
          "type": "uint256"
        }
      ],
      "name": "attack",
      "outputs": [],
      "payable": false,
      "stateMutability": "nonpayable",
      "type": "function"
    }
  ],
  "bytecode": "0x60806040526010600155600154600a0a6002556201518060035566038d7ea4c68000600a556000600b556046600c55336000806101000a81548173ffffffffffffffffffffffffffffffffffffffff021916908373ffffffffffffffffffffffffffffffffffffffff16021790555061195d8061007d6000396000f3006080604052600436106100e6576000357c0100000000000000000000000000000000000000000000000000000000900463ffffffff1680630ce90ec2146100eb578063144fa6d71461010b5780632e40c04b1461014e5780633ccfd60b146101e65780634921ac5c146101fd5780635faf2880146102285780638d089b4e1461025f5780638da5cb5b146102a25780639741aae9146102f9578063bf14e9561461033c578063c39cbef11461042d578063ccf670f814610472578063d8e29daa1461049f578063db7e28a014610508578063e1fa763814610575578063f2fde38b146105ac575b600080fd5b610109600480360381019080803590602001909291905050506105ef565b005b34801561011757600080fd5b5061014c600480360381019080803573ffffffffffffffffffffffffffffffffffffffff16906020019092919050505061065b565b005b34801561015a57600080fd5b5061018f600480360381019080803573ffffffffffffffffffffffffffffffffffffffff1690602001909291905050506106fa565b6040518080602001828103825283818151815260200191508051906020019060200280838360005b838110156101d25780820151818401526020810190506101b7565b505050509050019250505060405180910390f35b3480156101f257600080fd5b506101fb61082c565b005b34801561020957600080fd5b50610212610908565b6040518082815260200191505060405180910390f35b34801561023457600080fd5b5061025d6004803603810190808035906020019092919080359060200190929190505050610915565b005b34801561026b57600080fd5b506102a0600480360381019080803573ffffffffffffffffffffffffffffffffffffffff1690602001909291905050506109f7565b005b3480156102ae57600080fd5b506102b7610a96565b604051808273ffffffffffffffffffffffffffffffffffffffff1673ffffffffffffffffffffffffffffffffffffffff16815260200191505060405180910390f35b34801561030557600080fd5b5061033a600480360381019080803573ffffffffffffffffffffffffffffffffffffffff169060200190929190505050610abb565b005b34801561034857600080fd5b5061036760048036038101908080359060200190929190505050610b5a565b60405180806020018781526020018663ffffffff1663ffffffff1681526020018563ffffffff1663ffffffff1681526020018461ffff1661ffff1681526020018361ffff1661ffff168152602001828103825288818151815260200191508051906020019080838360005b838110156103ed5780820151818401526020810190506103d2565b50505050905090810190601f16801561041a5780820380516001836020036101000a031916815260200191505b5097505050505050505060405180910390f35b34801561043957600080fd5b5061047060048036038101908080359060200190929190803590602001908201803590602001919091929391929390505050610c79565b005b34801561047e57600080fd5b5061049d60048036038101908080359060200190929190505050610d67565b005b3480156104ab57600080fd5b50610506600480360381019080803590602001908201803590602001908080601f0160208091040260200160405190810160405280939291908181526020018383808284378201915050505050509192919290505050610dcc565b005b34801561051457600080fd5b5061053360048036038101908080359060200190929190505050610e45565b604051808273ffffffffffffffffffffffffffffffffffffffff1673ffffffffffffffffffffffffffffffffffffffff16815260200191505060405180910390f35b34801561058157600080fd5b506105aa6004803603810190808035906020019092919080359060200190929190505050610e78565b005b3480156105b857600080fd5b506105ed600480360381019080803573ffffffffffffffffffffffffffffffffffffffff169060200190929190505050611159565b005b600a54341415156105ff57600080fd5b60068181548110151561060e57fe5b9060005260206000209060030201600201600081819054906101000a900463ffffffff168092919060010191906101000a81548163ffffffff021916908363ffffffff1602179055505050565b6000809054906101000a900473ffffffffffffffffffffffffffffffffffffffff1673ffffffffffffffffffffffffffffffffffffffff163373ffffffffffffffffffffffffffffffffffffffff161415156106b657600080fd5b80600560006101000a81548173ffffffffffffffffffffffffffffffffffffffff021916908373ffffffffffffffffffffffffffffffffffffffff16021790555050565b606080600080600860008673ffffffffffffffffffffffffffffffffffffffff1673ffffffffffffffffffffffffffffffffffffffff1681526020019081526020016000205460405190808252806020026020018201604052801561076e5781602001602082028038833980820191505090505b50925060009150600090505b600680549050811015610821578473ffffffffffffffffffffffffffffffffffffffff166007600083815260200190815260200160002060009054906101000a900473ffffffffffffffffffffffffffffffffffffffff1673ffffffffffffffffffffffffffffffffffffffff161415610814578083838151811015156107fd57fe5b906020019060200201818152505081806001019250505b808060010191505061077a565b829350505050919050565b6000809054906101000a900473ffffffffffffffffffffffffffffffffffffffff1673ffffffffffffffffffffffffffffffffffffffff163373ffffffffffffffffffffffffffffffffffffffff1614151561088757600080fd5b6000809054906101000a900473ffffffffffffffffffffffffffffffffffffffff1673ffffffffffffffffffffffffffffffffffffffff166108fc3073ffffffffffffffffffffffffffffffffffffffff16319081150290604051600060405180830381858888f19350505050158015610905573d6000803e3d6000fd5b50565b6000600680549050905090565b6014828160068281548110151561092857fe5b906000526020600020906003020160020160009054906101000a900463ffffffff1663ffffffff161015151561095d57600080fd5b836007600082815260200190815260200160002060009054906101000a900473ffffffffffffffffffffffffffffffffffffffff1673ffffffffffffffffffffffffffffffffffffffff163373ffffffffffffffffffffffffffffffffffffffff161415156109cb57600080fd5b836006868154811015156109db57fe5b9060005260206000209060030201600101819055505050505050565b6000809054906101000a900473ffffffffffffffffffffffffffffffffffffffff1673ffffffffffffffffffffffffffffffffffffffff163373ffffffffffffffffffffffffffffffffffffffff16141515610a5257600080fd5b80600960006101000a81548173ffffffffffffffffffffffffffffffffffffffff021916908373ffffffffffffffffffffffffffffffffffffffff16021790555050565b6000809054906101000a900473ffffffffffffffffffffffffffffffffffffffff1681565b6000809054906101000a900473ffffffffffffffffffffffffffffffffffffffff1673ffffffffffffffffffffffffffffffffffffffff163373ffffffffffffffffffffffffffffffffffffffff16141515610b1657600080fd5b80600460006101000a81548173ffffffffffffffffffffffffffffffffffffffff021916908373ffffffffffffffffffffffffffffffffffffffff16021790555050565b600681815481101515610b6957fe5b9060005260206000209060030201600091509050806000018054600181600116156101000203166002900480601f016020809104026020016040519081016040528092919081815260200182805460018160011615610100020316600290048015610c155780601f10610bea57610100808354040283529160200191610c15565b820191906000526020600020905b815481529060010190602001808311610bf857829003601f168201915b5050505050908060010154908060020160009054906101000a900463ffffffff16908060020160049054906101000a900463ffffffff16908060020160089054906101000a900461ffff169080600201600a9054906101000a900461ffff16905086565b600a8381600682815481101515610c8c57fe5b906000526020600020906003020160020160009054906101000a900463ffffffff1663ffffffff1610151515610cc157600080fd5b846007600082815260200190815260200160002060009054906101000a900473ffffffffffffffffffffffffffffffffffffffff1673ffffffffffffffffffffffffffffffffffffffff163373ffffffffffffffffffffffffffffffffffffffff16141515610d2f57600080fd5b8484600688815481101515610d4057fe5b90600052602060002090600302016000019190610d5e92919061180c565b50505050505050565b6000809054906101000a900473ffffffffffffffffffffffffffffffffffffffff1673ffffffffffffffffffffffffffffffffffffffff163373ffffffffffffffffffffffffffffffffffffffff16141515610dc257600080fd5b80600a8190555050565b600080600860003373ffffffffffffffffffffffffffffffffffffffff1673ffffffffffffffffffffffffffffffffffffffff16815260200190815260200160002054141515610e1b57600080fd5b610e24826112ae565b9050606481811515610e3257fe5b0681039050610e418282611330565b5050565b60076020528060005260406000206000915054906101000a900473ffffffffffffffffffffffffffffffffffffffff1681565b6000806000846007600082815260200190815260200160002060009054906101000a900473ffffffffffffffffffffffffffffffffffffffff1673ffffffffffffffffffffffffffffffffffffffff163373ffffffffffffffffffffffffffffffffffffffff16141515610eeb57600080fd5b600686815481101515610efa57fe5b90600052602060002090600302019350600685815481101515610f1957fe5b90600052602060002090600302019250610f3360646115bc565b9150600c54821115156110695783600201600881819054906101000a900461ffff168092919060010191906101000a81548161ffff021916908361ffff1602179055505083600201600081819054906101000a900463ffffffff168092919060010191906101000a81548163ffffffff021916908363ffffffff1602179055505082600201600a81819054906101000a900461ffff168092919060010191906101000a81548161ffff021916908361ffff16021790555050857f9c970294b8e9ce03d35b4e6858f8a44de0fbdc27f4a3c6d2bbb799fd4a4c29aa60016040518082815260200191505060405180910390a261106486866040805190810160405280600381526020017f77696e0000000000000000000000000000000000000000000000000000000000815250611649565b611151565b83600201600a81819054906101000a900461ffff168092919060010191906101000a81548161ffff021916908361ffff1602179055505082600201600881819054906101000a900461ffff168092919060010191906101000a81548161ffff021916908361ffff16021790555050857f9c970294b8e9ce03d35b4e6858f8a44de0fbdc27f4a3c6d2bbb799fd4a4c29aa60006040518082815260200191505060405180910390a261115085876040805190810160405280600481526020017f6c6f736500000000000000000000000000000000000000000000000000000000815250611649565b5b505050505050565b6000809054906101000a900473ffffffffffffffffffffffffffffffffffffffff1673ffffffffffffffffffffffffffffffffffffffff163373ffffffffffffffffffffffffffffffffffffffff161415156111b457600080fd5b600073ffffffffffffffffffffffffffffffffffffffff168173ffffffffffffffffffffffffffffffffffffffff16141515156111f057600080fd5b8073ffffffffffffffffffffffffffffffffffffffff166000809054906101000a900473ffffffffffffffffffffffffffffffffffffffff1673ffffffffffffffffffffffffffffffffffffffff167f8be0079c531659141344cd1fd0a4f28419497f9722a3daafe3b4186f6b6457e060405160405180910390a3806000806101000a81548173ffffffffffffffffffffffffffffffffffffffff021916908373ffffffffffffffffffffffffffffffffffffffff16021790555050565b600080826040518082805190602001908083835b6020831015156112e757805182526020820191506020810190506020830392506112c2565b6001836020036101000a03801982511681845116808217855250505050505090500191505060405180910390206001900490506002548181151561132757fe5b06915050919050565b60006001600660c060405190810160405280868152602001858152602001600163ffffffff168152602001600354420163ffffffff168152602001600061ffff168152602001600061ffff168152509080600181540180825580915050906001820390600052602060002090600302016000909192909190915060008201518160000190805190602001906113c692919061188c565b506020820151816001015560408201518160020160006101000a81548163ffffffff021916908363ffffffff16021790555060608201518160020160046101000a81548163ffffffff021916908363ffffffff16021790555060808201518160020160086101000a81548161ffff021916908361ffff16021790555060a082015181600201600a6101000a81548161ffff021916908361ffff1602179055505050039050336007600083815260200190815260200160002060006101000a81548173ffffffffffffffffffffffffffffffffffffffff021916908373ffffffffffffffffffffffffffffffffffffffff160217905550600860003373ffffffffffffffffffffffffffffffffffffffff1673ffffffffffffffffffffffffffffffffffffffff168152602001908152602001600020600081548092919060010191905055507f6b0b682eb60f10e65ca2065dceecd9e5d24a08f912cdcb6bf59fb4ded1b3a1048184846040518084815260200180602001838152602001828103825284818151815260200191508051906020019080838360005b8381101561157b578082015181840152602081019050611560565b50505050905090810190601f1680156115a85780820380516001836020036101000a031916815260200191505b5094505050505060405180910390a1505050565b6000600b60008154809291906001019190505550814233600b54604051808481526020018373ffffffffffffffffffffffffffffffffffffffff1673ffffffffffffffffffffffffffffffffffffffff166c01000000000000000000000000028152601401828152602001935050505060405180910390206001900481151561164157fe5b069050919050565b600060068481548110151561165a57fe5b90600052602060002090600302019050600560009054906101000a900473ffffffffffffffffffffffffffffffffffffffff1673ffffffffffffffffffffffffffffffffffffffff1663ea6fb6446007600087815260200190815260200160002060009054906101000a900473ffffffffffffffffffffffffffffffffffffffff166007600087815260200190815260200160002060009054906101000a900473ffffffffffffffffffffffffffffffffffffffff1660026040518463ffffffff167c0100000000000000000000000000000000000000000000000000000000028152600401808473ffffffffffffffffffffffffffffffffffffffff1673ffffffffffffffffffffffffffffffffffffffff1681526020018373ffffffffffffffffffffffffffffffffffffffff1673ffffffffffffffffffffffffffffffffffffffff1681526020018281526020019350505050602060405180830381600087803b1580156117ca57600080fd5b505af11580156117de573d6000803e3d6000fd5b505050506040513d60208110156117f457600080fd5b81019080805190602001909291905050505050505050565b828054600181600116156101000203166002900490600052602060002090601f016020900481019282601f1061184d57803560ff191683800117855561187b565b8280016001018555821561187b579182015b8281111561187a57823582559160200191906001019061185f565b5b509050611888919061190c565b5090565b828054600181600116156101000203166002900490600052602060002090601f016020900481019282601f106118cd57805160ff19168380011785556118fb565b828001600101855582156118fb579182015b828111156118fa5782518255916020019190600101906118df565b5b509050611908919061190c565b5090565b61192e91905b8082111561192a576000816000905550600101611912565b5090565b905600a165627a7a723058204f7687f308056e56b3cce350906cb3077e7c779208a8a25fd9ab7617662682c80029",
  "source": "pragma solidity ^0.4.20;\n\nimport \"./piratehelper.sol\";\n\ncontract PirateAttack is PirateHelper {\n  uint randNonce = 0;\n  uint attackVictoryProbability = 70;\n\n  event attackResult(uint indexed _pirateId, uint result);\n  function randMod(uint _modulus) internal returns(uint) {\n    randNonce++;\n    return uint(keccak256(now, msg.sender, randNonce)) % _modulus;\n  }\n\n  function attack(uint _pirateId, uint _targetId) external onlyOwnerOf(_pirateId) {\n    Pirate storage myPirate = pirates[_pirateId];\n    Pirate storage enemyPirate = pirates[_targetId];\n    uint rand = randMod(100);\n    if (rand <= attackVictoryProbability) {\n      myPirate.winCount++;\n      myPirate.level++;\n      enemyPirate.lossCount++;\n     // _triggerCooldown(myPirate);\n      emit attackResult(_pirateId, 1);\n      stealPirate(_pirateId, _targetId, \"win\");\n    } else {\n      myPirate.lossCount++;\n      enemyPirate.winCount++;\n     // _triggerCooldown(myPirate);\n      emit attackResult(_pirateId, 0);\n      //if you lose when you attack you wont be stealed too much like when youre under atteack\n      stealPirate(_targetId, _pirateId, \"lose\");\n    }\n\n  }\n}\n\n",
  "sourcePath": "/home/freeman/Desktop/dappG/contracts/pirateattack.sol",
  "compiler": {
    "name": "solc",
    "version": "0.4.24+commit.e67f0147.Emscripten.clang"
  },
  "schemaVersion": "2.0.1",
  "updatedAt": "2018-08-02T21:17:15.897Z"
}