{
  "contractName": "PirateAttack",
  "abi": [
    {
      "constant": false,
      "inputs": [
        {
          "name": "_pirateId",
          "type": "uint256"
        }
      ],
      "name": "levelUp",
      "outputs": [],
      "payable": true,
      "stateMutability": "payable",
      "type": "function"
    },
    {
      "constant": false,
      "inputs": [
        {
          "name": "_tk",
          "type": "address"
        }
      ],
      "name": "setToken",
      "outputs": [],
      "payable": false,
      "stateMutability": "nonpayable",
      "type": "function"
    },
    {
      "constant": true,
      "inputs": [],
      "name": "getToken",
      "outputs": [
        {
          "name": "",
          "type": "address"
        }
      ],
      "payable": false,
      "stateMutability": "view",
      "type": "function"
    },
    {
      "constant": true,
      "inputs": [
        {
          "name": "_owner",
          "type": "address"
        }
      ],
      "name": "getPiratesByOwner",
      "outputs": [
        {
          "name": "",
          "type": "uint256[]"
        }
      ],
      "payable": false,
      "stateMutability": "view",
      "type": "function"
    },
    {
      "constant": false,
      "inputs": [],
      "name": "withdraw",
      "outputs": [],
      "payable": false,
      "stateMutability": "nonpayable",
      "type": "function"
    },
    {
      "constant": true,
      "inputs": [],
      "name": "getPiratesLenght",
      "outputs": [
        {
          "name": "",
          "type": "uint256"
        }
      ],
      "payable": false,
      "stateMutability": "view",
      "type": "function"
    },
    {
      "constant": false,
      "inputs": [
        {
          "name": "_pirateId",
          "type": "uint256"
        },
        {
          "name": "_newDna",
          "type": "uint256"
        }
      ],
      "name": "changeDna",
      "outputs": [],
      "payable": false,
      "stateMutability": "nonpayable",
      "type": "function"
    },
    {
      "constant": false,
      "inputs": [
        {
          "name": "_address",
          "type": "address"
        }
      ],
      "name": "setPetContractAddress",
      "outputs": [],
      "payable": false,
      "stateMutability": "nonpayable",
      "type": "function"
    },
    {
      "constant": true,
      "inputs": [],
      "name": "owner",
      "outputs": [
        {
          "name": "",
          "type": "address"
        }
      ],
      "payable": false,
      "stateMutability": "view",
      "type": "function"
    },
    {
      "constant": false,
      "inputs": [
        {
          "name": "_wp",
          "type": "address"
        }
      ],
      "name": "setWeapon",
      "outputs": [],
      "payable": false,
      "stateMutability": "nonpayable",
      "type": "function"
    },
    {
      "constant": true,
      "inputs": [
        {
          "name": "",
          "type": "uint256"
        }
      ],
      "name": "pirates",
      "outputs": [
        {
          "name": "name",
          "type": "string"
        },
        {
          "name": "dna",
          "type": "uint256"
        },
        {
          "name": "level",
          "type": "uint32"
        },
        {
          "name": "readyTime",
          "type": "uint32"
        },
        {
          "name": "winCount",
          "type": "uint16"
        },
        {
          "name": "lossCount",
          "type": "uint16"
        }
      ],
      "payable": false,
      "stateMutability": "view",
      "type": "function"
    },
    {
      "constant": false,
      "inputs": [
        {
          "name": "_pirateId",
          "type": "uint256"
        },
        {
          "name": "_newName",
          "type": "string"
        }
      ],
      "name": "changeName",
      "outputs": [],
      "payable": false,
      "stateMutability": "nonpayable",
      "type": "function"
    },
    {
      "constant": false,
      "inputs": [
        {
          "name": "_fee",
          "type": "uint256"
        }
      ],
      "name": "setLevelUpFee",
      "outputs": [],
      "payable": false,
      "stateMutability": "nonpayable",
      "type": "function"
    },
    {
      "constant": false,
      "inputs": [
        {
          "name": "_name",
          "type": "string"
        }
      ],
      "name": "createRandomPirate",
      "outputs": [],
      "payable": false,
      "stateMutability": "nonpayable",
      "type": "function"
    },
    {
      "constant": true,
      "inputs": [
        {
          "name": "",
          "type": "uint256"
        }
      ],
      "name": "pirateToOwner",
      "outputs": [
        {
          "name": "",
          "type": "address"
        }
      ],
      "payable": false,
      "stateMutability": "view",
      "type": "function"
    },
    {
      "constant": false,
      "inputs": [
        {
          "name": "newOwner",
          "type": "address"
        }
      ],
      "name": "transferOwnership",
      "outputs": [],
      "payable": false,
      "stateMutability": "nonpayable",
      "type": "function"
    },
    {
      "inputs": [
        {
          "name": "unig",
          "type": "address"
        }
      ],
      "payable": false,
      "stateMutability": "nonpayable",
      "type": "constructor"
    },
    {
      "anonymous": false,
      "inputs": [
        {
          "indexed": true,
          "name": "_pirateId",
          "type": "uint256"
        },
        {
          "indexed": false,
          "name": "result",
          "type": "uint256"
        }
      ],
      "name": "attackResult",
      "type": "event"
    },
    {
      "anonymous": false,
      "inputs": [
        {
          "indexed": false,
          "name": "pirateId",
          "type": "uint256"
        },
        {
          "indexed": false,
          "name": "name",
          "type": "string"
        },
        {
          "indexed": false,
          "name": "dna",
          "type": "uint256"
        }
      ],
      "name": "NewPirate",
      "type": "event"
    },
    {
      "anonymous": false,
      "inputs": [
        {
          "indexed": true,
          "name": "previousOwner",
          "type": "address"
        },
        {
          "indexed": true,
          "name": "newOwner",
          "type": "address"
        }
      ],
      "name": "OwnershipTransferred",
      "type": "event"
    },
    {
      "constant": false,
      "inputs": [
        {
          "name": "_pirateId",
          "type": "uint256"
        },
        {
          "name": "_targetId",
          "type": "uint256"
        }
      ],
      "name": "attack",
      "outputs": [],
      "payable": false,
      "stateMutability": "nonpayable",
      "type": "function"
    }
  ],
  "bytecode": "0x60806040526010600155600154600a0a6002556201518060035566038d7ea4c68000600a556000600b556046600c5534801561003a57600080fd5b50604051602080611adf83398101806040528101908080519060200190929190505050808080336000806101000a81548173ffffffffffffffffffffffffffffffffffffffff021916908373ffffffffffffffffffffffffffffffffffffffff16021790555080600560006101000a81548173ffffffffffffffffffffffffffffffffffffffff021916908373ffffffffffffffffffffffffffffffffffffffff160217905550505050506119eb806100f46000396000f3006080604052600436106100f1576000357c0100000000000000000000000000000000000000000000000000000000900463ffffffff1680630ce90ec2146100f6578063144fa6d71461011657806321df0da7146101595780632e40c04b146101b05780633ccfd60b146102485780634921ac5c1461025f5780635faf28801461028a5780638d089b4e146102c15780638da5cb5b146103045780639741aae91461035b578063bf14e9561461039e578063c39cbef11461048f578063ccf670f8146104d4578063d8e29daa14610501578063db7e28a01461056a578063e1fa7638146105d7578063f2fde38b1461060e575b600080fd5b61011460048036038101908080359060200190929190505050610651565b005b34801561012257600080fd5b50610157600480360381019080803573ffffffffffffffffffffffffffffffffffffffff1690602001909291905050506106bd565b005b34801561016557600080fd5b5061016e61075c565b604051808273ffffffffffffffffffffffffffffffffffffffff1673ffffffffffffffffffffffffffffffffffffffff16815260200191505060405180910390f35b3480156101bc57600080fd5b506101f1600480360381019080803573ffffffffffffffffffffffffffffffffffffffff169060200190929190505050610786565b6040518080602001828103825283818151815260200191508051906020019060200280838360005b83811015610234578082015181840152602081019050610219565b505050509050019250505060405180910390f35b34801561025457600080fd5b5061025d6108b8565b005b34801561026b57600080fd5b50610274610994565b6040518082815260200191505060405180910390f35b34801561029657600080fd5b506102bf60048036038101908080359060200190929190803590602001909291905050506109a1565b005b3480156102cd57600080fd5b50610302600480360381019080803573ffffffffffffffffffffffffffffffffffffffff169060200190929190505050610a83565b005b34801561031057600080fd5b50610319610b22565b604051808273ffffffffffffffffffffffffffffffffffffffff1673ffffffffffffffffffffffffffffffffffffffff16815260200191505060405180910390f35b34801561036757600080fd5b5061039c600480360381019080803573ffffffffffffffffffffffffffffffffffffffff169060200190929190505050610b47565b005b3480156103aa57600080fd5b506103c960048036038101908080359060200190929190505050610be6565b60405180806020018781526020018663ffffffff1663ffffffff1681526020018563ffffffff1663ffffffff1681526020018461ffff1661ffff1681526020018361ffff1661ffff168152602001828103825288818151815260200191508051906020019080838360005b8381101561044f578082015181840152602081019050610434565b50505050905090810190601f16801561047c5780820380516001836020036101000a031916815260200191505b5097505050505050505060405180910390f35b34801561049b57600080fd5b506104d260048036038101908080359060200190929190803590602001908201803590602001919091929391929390505050610d05565b005b3480156104e057600080fd5b506104ff60048036038101908080359060200190929190505050610df3565b005b34801561050d57600080fd5b50610568600480360381019080803590602001908201803590602001908080601f0160208091040260200160405190810160405280939291908181526020018383808284378201915050505050509192919290505050610e58565b005b34801561057657600080fd5b5061059560048036038101908080359060200190929190505050610ed1565b604051808273ffffffffffffffffffffffffffffffffffffffff1673ffffffffffffffffffffffffffffffffffffffff16815260200191505060405180910390f35b3480156105e357600080fd5b5061060c6004803603810190808035906020019092919080359060200190929190505050610f04565b005b34801561061a57600080fd5b5061064f600480360381019080803573ffffffffffffffffffffffffffffffffffffffff169060200190929190505050611201565b005b600a543414151561066157600080fd5b60068181548110151561067057fe5b9060005260206000209060030201600201600081819054906101000a900463ffffffff168092919060010191906101000a81548163ffffffff021916908363ffffffff1602179055505050565b6000809054906101000a900473ffffffffffffffffffffffffffffffffffffffff1673ffffffffffffffffffffffffffffffffffffffff163373ffffffffffffffffffffffffffffffffffffffff1614151561071857600080fd5b80600560006101000a81548173ffffffffffffffffffffffffffffffffffffffff021916908373ffffffffffffffffffffffffffffffffffffffff16021790555050565b6000600560009054906101000a900473ffffffffffffffffffffffffffffffffffffffff16905090565b606080600080600860008673ffffffffffffffffffffffffffffffffffffffff1673ffffffffffffffffffffffffffffffffffffffff168152602001908152602001600020546040519080825280602002602001820160405280156107fa5781602001602082028038833980820191505090505b50925060009150600090505b6006805490508110156108ad578473ffffffffffffffffffffffffffffffffffffffff166007600083815260200190815260200160002060009054906101000a900473ffffffffffffffffffffffffffffffffffffffff1673ffffffffffffffffffffffffffffffffffffffff1614156108a05780838381518110151561088957fe5b906020019060200201818152505081806001019250505b8080600101915050610806565b829350505050919050565b6000809054906101000a900473ffffffffffffffffffffffffffffffffffffffff1673ffffffffffffffffffffffffffffffffffffffff163373ffffffffffffffffffffffffffffffffffffffff1614151561091357600080fd5b6000809054906101000a900473ffffffffffffffffffffffffffffffffffffffff1673ffffffffffffffffffffffffffffffffffffffff166108fc3073ffffffffffffffffffffffffffffffffffffffff16319081150290604051600060405180830381858888f19350505050158015610991573d6000803e3d6000fd5b50565b6000600680549050905090565b601482816006828154811015156109b457fe5b906000526020600020906003020160020160009054906101000a900463ffffffff1663ffffffff16101515156109e957600080fd5b836007600082815260200190815260200160002060009054906101000a900473ffffffffffffffffffffffffffffffffffffffff1673ffffffffffffffffffffffffffffffffffffffff163373ffffffffffffffffffffffffffffffffffffffff16141515610a5757600080fd5b83600686815481101515610a6757fe5b9060005260206000209060030201600101819055505050505050565b6000809054906101000a900473ffffffffffffffffffffffffffffffffffffffff1673ffffffffffffffffffffffffffffffffffffffff163373ffffffffffffffffffffffffffffffffffffffff16141515610ade57600080fd5b80600960006101000a81548173ffffffffffffffffffffffffffffffffffffffff021916908373ffffffffffffffffffffffffffffffffffffffff16021790555050565b6000809054906101000a900473ffffffffffffffffffffffffffffffffffffffff1681565b6000809054906101000a900473ffffffffffffffffffffffffffffffffffffffff1673ffffffffffffffffffffffffffffffffffffffff163373ffffffffffffffffffffffffffffffffffffffff16141515610ba257600080fd5b80600460006101000a81548173ffffffffffffffffffffffffffffffffffffffff021916908373ffffffffffffffffffffffffffffffffffffffff16021790555050565b600681815481101515610bf557fe5b9060005260206000209060030201600091509050806000018054600181600116156101000203166002900480601f016020809104026020016040519081016040528092919081815260200182805460018160011615610100020316600290048015610ca15780601f10610c7657610100808354040283529160200191610ca1565b820191906000526020600020905b815481529060010190602001808311610c8457829003601f168201915b5050505050908060010154908060020160009054906101000a900463ffffffff16908060020160049054906101000a900463ffffffff16908060020160089054906101000a900461ffff169080600201600a9054906101000a900461ffff16905086565b600a8381600682815481101515610d1857fe5b906000526020600020906003020160020160009054906101000a900463ffffffff1663ffffffff1610151515610d4d57600080fd5b846007600082815260200190815260200160002060009054906101000a900473ffffffffffffffffffffffffffffffffffffffff1673ffffffffffffffffffffffffffffffffffffffff163373ffffffffffffffffffffffffffffffffffffffff16141515610dbb57600080fd5b8484600688815481101515610dcc57fe5b90600052602060002090600302016000019190610dea92919061189a565b50505050505050565b6000809054906101000a900473ffffffffffffffffffffffffffffffffffffffff1673ffffffffffffffffffffffffffffffffffffffff163373ffffffffffffffffffffffffffffffffffffffff16141515610e4e57600080fd5b80600a8190555050565b600080600860003373ffffffffffffffffffffffffffffffffffffffff1673ffffffffffffffffffffffffffffffffffffffff16815260200190815260200160002054141515610ea757600080fd5b610eb082611356565b9050606481811515610ebe57fe5b0681039050610ecd82826113d8565b5050565b60076020528060005260406000206000915054906101000a900473ffffffffffffffffffffffffffffffffffffffff1681565b6000806000846007600082815260200190815260200160002060009054906101000a900473ffffffffffffffffffffffffffffffffffffffff1673ffffffffffffffffffffffffffffffffffffffff163373ffffffffffffffffffffffffffffffffffffffff16141515610f7757600080fd5b600686815481101515610f8657fe5b90600052602060002090600302019350600685815481101515610fa557fe5b90600052602060002090600302019250610fbf6064611664565b9150600c54821115156111035783600201600881819054906101000a900461ffff168092919060010191906101000a81548161ffff021916908361ffff1602179055505083600201600081819054906101000a900463ffffffff168092919060010191906101000a81548163ffffffff021916908363ffffffff1602179055505082600201600a81819054906101000a900461ffff168092919060010191906101000a81548161ffff021916908361ffff16021790555050857f9c970294b8e9ce03d35b4e6858f8a44de0fbdc27f4a3c6d2bbb799fd4a4c29aa60016040518082815260200191505060405180910390a260016110f287876040805190810160405280600381526020017f77696e00000000000000000000000000000000000000000000000000000000008152506116f1565b1415156110fe57600080fd5b6111f9565b83600201600a81819054906101000a900461ffff168092919060010191906101000a81548161ffff021916908361ffff1602179055505082600201600881819054906101000a900461ffff168092919060010191906101000a81548161ffff021916908361ffff16021790555050857f9c970294b8e9ce03d35b4e6858f8a44de0fbdc27f4a3c6d2bbb799fd4a4c29aa60006040518082815260200191505060405180910390a260016111ec86886040805190810160405280600481526020017f6c6f7365000000000000000000000000000000000000000000000000000000008152506116f1565b1415156111f857600080fd5b5b505050505050565b6000809054906101000a900473ffffffffffffffffffffffffffffffffffffffff1673ffffffffffffffffffffffffffffffffffffffff163373ffffffffffffffffffffffffffffffffffffffff1614151561125c57600080fd5b600073ffffffffffffffffffffffffffffffffffffffff168173ffffffffffffffffffffffffffffffffffffffff161415151561129857600080fd5b8073ffffffffffffffffffffffffffffffffffffffff166000809054906101000a900473ffffffffffffffffffffffffffffffffffffffff1673ffffffffffffffffffffffffffffffffffffffff167f8be0079c531659141344cd1fd0a4f28419497f9722a3daafe3b4186f6b6457e060405160405180910390a3806000806101000a81548173ffffffffffffffffffffffffffffffffffffffff021916908373ffffffffffffffffffffffffffffffffffffffff16021790555050565b600080826040518082805190602001908083835b60208310151561138f578051825260208201915060208101905060208303925061136a565b6001836020036101000a0380198251168184511680821785525050505050509050019150506040518091039020600190049050600254818115156113cf57fe5b06915050919050565b60006001600660c060405190810160405280868152602001858152602001600163ffffffff168152602001600354420163ffffffff168152602001600061ffff168152602001600061ffff1681525090806001815401808255809150509060018203906000526020600020906003020160009091929091909150600082015181600001908051906020019061146e92919061191a565b506020820151816001015560408201518160020160006101000a81548163ffffffff021916908363ffffffff16021790555060608201518160020160046101000a81548163ffffffff021916908363ffffffff16021790555060808201518160020160086101000a81548161ffff021916908361ffff16021790555060a082015181600201600a6101000a81548161ffff021916908361ffff1602179055505050039050336007600083815260200190815260200160002060006101000a81548173ffffffffffffffffffffffffffffffffffffffff021916908373ffffffffffffffffffffffffffffffffffffffff160217905550600860003373ffffffffffffffffffffffffffffffffffffffff1673ffffffffffffffffffffffffffffffffffffffff168152602001908152602001600020600081548092919060010191905055507f6b0b682eb60f10e65ca2065dceecd9e5d24a08f912cdcb6bf59fb4ded1b3a1048184846040518084815260200180602001838152602001828103825284818151815260200191508051906020019080838360005b83811015611623578082015181840152602081019050611608565b50505050905090810190601f1680156116505780820380516001836020036101000a031916815260200191505b5094505050505060405180910390a1505050565b6000600b60008154809291906001019190505550814233600b54604051808481526020018373ffffffffffffffffffffffffffffffffffffffff1673ffffffffffffffffffffffffffffffffffffffff166c0100000000000000000000000002815260140182815260200193505050506040518091039020600190048115156116e957fe5b069050919050565b6000600560009054906101000a900473ffffffffffffffffffffffffffffffffffffffff1673ffffffffffffffffffffffffffffffffffffffff1663ea6fb6446007600087815260200190815260200160002060009054906101000a900473ffffffffffffffffffffffffffffffffffffffff166007600087815260200190815260200160002060009054906101000a900473ffffffffffffffffffffffffffffffffffffffff1660026040518463ffffffff167c0100000000000000000000000000000000000000000000000000000000028152600401808473ffffffffffffffffffffffffffffffffffffffff1673ffffffffffffffffffffffffffffffffffffffff1681526020018373ffffffffffffffffffffffffffffffffffffffff1673ffffffffffffffffffffffffffffffffffffffff1681526020018281526020019350505050602060405180830381600087803b15801561185357600080fd5b505af1158015611867573d6000803e3d6000fd5b505050506040513d602081101561187d57600080fd5b810190808051906020019092919050505050600190509392505050565b828054600181600116156101000203166002900490600052602060002090601f016020900481019282601f106118db57803560ff1916838001178555611909565b82800160010185558215611909579182015b828111156119085782358255916020019190600101906118ed565b5b509050611916919061199a565b5090565b828054600181600116156101000203166002900490600052602060002090601f016020900481019282601f1061195b57805160ff1916838001178555611989565b82800160010185558215611989579182015b8281111561198857825182559160200191906001019061196d565b5b509050611996919061199a565b5090565b6119bc91905b808211156119b85760008160009055506001016119a0565b5090565b905600a165627a7a7230582053eb7d268484f2b3a6d6ffaf1ad068bb5da3231bfa673d36498cbc04a97180fc0029",
  "source": "pragma solidity ^0.4.20;\n\nimport \"./piratehelper.sol\";\nimport \"./UnigToken.sol\";\n\ncontract PirateAttack is PirateHelper {\n  uint randNonce = 0;\n  uint attackVictoryProbability = 70;\n\n  event attackResult(uint indexed _pirateId, uint result);\n\n\n  constructor(UnigToken unig) PirateHelper(unig) public{\n  }\n\n  function randMod(uint _modulus) internal returns(uint) {\n    randNonce++;\n    return uint(keccak256(now, msg.sender, randNonce)) % _modulus;\n  }\n\n  function attack(uint _pirateId, uint _targetId) external onlyOwnerOf(_pirateId) {\n    Pirate storage myPirate = pirates[_pirateId];\n    Pirate storage enemyPirate = pirates[_targetId];\n    uint rand = randMod(100);\n    if (rand <= attackVictoryProbability) {\n      myPirate.winCount++;\n      myPirate.level++;\n      enemyPirate.lossCount++;\n     // _triggerCooldown(myPirate);\n      emit attackResult(_pirateId, 1);\n      require(stealPirate(_pirateId, _targetId, \"win\") == 1);\n    } else {\n      myPirate.lossCount++;\n      enemyPirate.winCount++;\n     // _triggerCooldown(myPirate);\n      emit attackResult(_pirateId, 0);\n      //if you lose when you attack you wont be stealed too much like when youre under atteack\n      require(stealPirate(_targetId, _pirateId, \"lose\") == 1);\n    }\n\n  }\n}\n\n",
  "sourcePath": "/home/freeman/Desktop/dappG/contracts/pirateattack.sol",
  "compiler": {
    "name": "solc",
    "version": "0.4.24+commit.e67f0147.Emscripten.clang"
  },
  "schemaVersion": "2.0.1",
  "updatedAt": "2018-08-02T23:57:22.248Z"
}