{
  "contractName": "PirateFeeding",
  "abi": [
    {
      "constant": false,
      "inputs": [
        {
          "name": "_tk",
          "type": "address"
        }
      ],
      "name": "setToken",
      "outputs": [],
      "payable": false,
      "stateMutability": "nonpayable",
      "type": "function"
    },
    {
      "constant": true,
      "inputs": [],
      "name": "getToken",
      "outputs": [
        {
          "name": "",
          "type": "address"
        }
      ],
      "payable": false,
      "stateMutability": "view",
      "type": "function"
    },
    {
      "constant": true,
      "inputs": [],
      "name": "getPiratesLenght",
      "outputs": [
        {
          "name": "",
          "type": "uint256"
        }
      ],
      "payable": false,
      "stateMutability": "view",
      "type": "function"
    },
    {
      "constant": true,
      "inputs": [],
      "name": "owner",
      "outputs": [
        {
          "name": "",
          "type": "address"
        }
      ],
      "payable": false,
      "stateMutability": "view",
      "type": "function"
    },
    {
      "constant": false,
      "inputs": [
        {
          "name": "_wp",
          "type": "address"
        }
      ],
      "name": "setWeapon",
      "outputs": [],
      "payable": false,
      "stateMutability": "nonpayable",
      "type": "function"
    },
    {
      "constant": true,
      "inputs": [
        {
          "name": "",
          "type": "uint256"
        }
      ],
      "name": "pirates",
      "outputs": [
        {
          "name": "name",
          "type": "string"
        },
        {
          "name": "dna",
          "type": "uint256"
        },
        {
          "name": "level",
          "type": "uint32"
        },
        {
          "name": "readyTime",
          "type": "uint32"
        },
        {
          "name": "winCount",
          "type": "uint16"
        },
        {
          "name": "lossCount",
          "type": "uint16"
        }
      ],
      "payable": false,
      "stateMutability": "view",
      "type": "function"
    },
    {
      "constant": false,
      "inputs": [
        {
          "name": "_name",
          "type": "string"
        }
      ],
      "name": "createRandomPirate",
      "outputs": [],
      "payable": false,
      "stateMutability": "nonpayable",
      "type": "function"
    },
    {
      "constant": true,
      "inputs": [
        {
          "name": "",
          "type": "uint256"
        }
      ],
      "name": "pirateToOwner",
      "outputs": [
        {
          "name": "",
          "type": "address"
        }
      ],
      "payable": false,
      "stateMutability": "view",
      "type": "function"
    },
    {
      "constant": false,
      "inputs": [
        {
          "name": "newOwner",
          "type": "address"
        }
      ],
      "name": "transferOwnership",
      "outputs": [],
      "payable": false,
      "stateMutability": "nonpayable",
      "type": "function"
    },
    {
      "inputs": [
        {
          "name": "unig",
          "type": "address"
        }
      ],
      "payable": false,
      "stateMutability": "nonpayable",
      "type": "constructor"
    },
    {
      "anonymous": false,
      "inputs": [
        {
          "indexed": false,
          "name": "pirateId",
          "type": "uint256"
        },
        {
          "indexed": false,
          "name": "name",
          "type": "string"
        },
        {
          "indexed": false,
          "name": "dna",
          "type": "uint256"
        }
      ],
      "name": "NewPirate",
      "type": "event"
    },
    {
      "anonymous": false,
      "inputs": [
        {
          "indexed": true,
          "name": "previousOwner",
          "type": "address"
        },
        {
          "indexed": true,
          "name": "newOwner",
          "type": "address"
        }
      ],
      "name": "OwnershipTransferred",
      "type": "event"
    },
    {
      "constant": false,
      "inputs": [
        {
          "name": "_address",
          "type": "address"
        }
      ],
      "name": "setPetContractAddress",
      "outputs": [],
      "payable": false,
      "stateMutability": "nonpayable",
      "type": "function"
    }
  ],
  "bytecode": "0x60806040526010600155600154600a0a6002556201518060035534801561002557600080fd5b50604051602080610e688339810180604052810190808051906020019092919050505080336000806101000a81548173ffffffffffffffffffffffffffffffffffffffff021916908373ffffffffffffffffffffffffffffffffffffffff16021790555080600560006101000a81548173ffffffffffffffffffffffffffffffffffffffff021916908373ffffffffffffffffffffffffffffffffffffffff1602179055505050610d8d806100db6000396000f3006080604052600436106100a4576000357c0100000000000000000000000000000000000000000000000000000000900463ffffffff168063144fa6d7146100a957806321df0da7146100ec5780634921ac5c146101435780638d089b4e1461016e5780638da5cb5b146101b15780639741aae914610208578063bf14e9561461024b578063d8e29daa1461033c578063db7e28a0146103a5578063f2fde38b14610412575b600080fd5b3480156100b557600080fd5b506100ea600480360381019080803573ffffffffffffffffffffffffffffffffffffffff169060200190929190505050610455565b005b3480156100f857600080fd5b506101016104f4565b604051808273ffffffffffffffffffffffffffffffffffffffff1673ffffffffffffffffffffffffffffffffffffffff16815260200191505060405180910390f35b34801561014f57600080fd5b5061015861051e565b6040518082815260200191505060405180910390f35b34801561017a57600080fd5b506101af600480360381019080803573ffffffffffffffffffffffffffffffffffffffff16906020019092919050505061052b565b005b3480156101bd57600080fd5b506101c66105ca565b604051808273ffffffffffffffffffffffffffffffffffffffff1673ffffffffffffffffffffffffffffffffffffffff16815260200191505060405180910390f35b34801561021457600080fd5b50610249600480360381019080803573ffffffffffffffffffffffffffffffffffffffff1690602001909291905050506105ef565b005b34801561025757600080fd5b506102766004803603810190808035906020019092919050505061068e565b60405180806020018781526020018663ffffffff1663ffffffff1681526020018563ffffffff1663ffffffff1681526020018461ffff1661ffff1681526020018361ffff1661ffff168152602001828103825288818151815260200191508051906020019080838360005b838110156102fc5780820151818401526020810190506102e1565b50505050905090810190601f1680156103295780820380516001836020036101000a031916815260200191505b5097505050505050505060405180910390f35b34801561034857600080fd5b506103a3600480360381019080803590602001908201803590602001908080601f01602080910402602001604051908101604052809392919081815260200183838082843782019150505050505091929192905050506107ad565b005b3480156103b157600080fd5b506103d060048036038101908080359060200190929190505050610826565b604051808273ffffffffffffffffffffffffffffffffffffffff1673ffffffffffffffffffffffffffffffffffffffff16815260200191505060405180910390f35b34801561041e57600080fd5b50610453600480360381019080803573ffffffffffffffffffffffffffffffffffffffff169060200190929190505050610859565b005b6000809054906101000a900473ffffffffffffffffffffffffffffffffffffffff1673ffffffffffffffffffffffffffffffffffffffff163373ffffffffffffffffffffffffffffffffffffffff161415156104b057600080fd5b80600560006101000a81548173ffffffffffffffffffffffffffffffffffffffff021916908373ffffffffffffffffffffffffffffffffffffffff16021790555050565b6000600560009054906101000a900473ffffffffffffffffffffffffffffffffffffffff16905090565b6000600680549050905090565b6000809054906101000a900473ffffffffffffffffffffffffffffffffffffffff1673ffffffffffffffffffffffffffffffffffffffff163373ffffffffffffffffffffffffffffffffffffffff1614151561058657600080fd5b80600960006101000a81548173ffffffffffffffffffffffffffffffffffffffff021916908373ffffffffffffffffffffffffffffffffffffffff16021790555050565b6000809054906101000a900473ffffffffffffffffffffffffffffffffffffffff1681565b6000809054906101000a900473ffffffffffffffffffffffffffffffffffffffff1673ffffffffffffffffffffffffffffffffffffffff163373ffffffffffffffffffffffffffffffffffffffff1614151561064a57600080fd5b80600460006101000a81548173ffffffffffffffffffffffffffffffffffffffff021916908373ffffffffffffffffffffffffffffffffffffffff16021790555050565b60068181548110151561069d57fe5b9060005260206000209060030201600091509050806000018054600181600116156101000203166002900480601f0160208091040260200160405190810160405280929190818152602001828054600181600116156101000203166002900480156107495780601f1061071e57610100808354040283529160200191610749565b820191906000526020600020905b81548152906001019060200180831161072c57829003601f168201915b5050505050908060010154908060020160009054906101000a900463ffffffff16908060020160049054906101000a900463ffffffff16908060020160089054906101000a900461ffff169080600201600a9054906101000a900461ffff16905086565b600080600860003373ffffffffffffffffffffffffffffffffffffffff1673ffffffffffffffffffffffffffffffffffffffff168152602001908152602001600020541415156107fc57600080fd5b610805826109ae565b905060648181151561081357fe5b06810390506108228282610a30565b5050565b60076020528060005260406000206000915054906101000a900473ffffffffffffffffffffffffffffffffffffffff1681565b6000809054906101000a900473ffffffffffffffffffffffffffffffffffffffff1673ffffffffffffffffffffffffffffffffffffffff163373ffffffffffffffffffffffffffffffffffffffff161415156108b457600080fd5b600073ffffffffffffffffffffffffffffffffffffffff168173ffffffffffffffffffffffffffffffffffffffff16141515156108f057600080fd5b8073ffffffffffffffffffffffffffffffffffffffff166000809054906101000a900473ffffffffffffffffffffffffffffffffffffffff1673ffffffffffffffffffffffffffffffffffffffff167f8be0079c531659141344cd1fd0a4f28419497f9722a3daafe3b4186f6b6457e060405160405180910390a3806000806101000a81548173ffffffffffffffffffffffffffffffffffffffff021916908373ffffffffffffffffffffffffffffffffffffffff16021790555050565b600080826040518082805190602001908083835b6020831015156109e757805182526020820191506020810190506020830392506109c2565b6001836020036101000a038019825116818451168082178552505050505050905001915050604051809103902060019004905060025481811515610a2757fe5b06915050919050565b60006001600660c060405190810160405280868152602001858152602001600163ffffffff168152602001600354420163ffffffff168152602001600061ffff168152602001600061ffff16815250908060018154018082558091505090600182039060005260206000209060030201600090919290919091506000820151816000019080519060200190610ac6929190610cbc565b506020820151816001015560408201518160020160006101000a81548163ffffffff021916908363ffffffff16021790555060608201518160020160046101000a81548163ffffffff021916908363ffffffff16021790555060808201518160020160086101000a81548161ffff021916908361ffff16021790555060a082015181600201600a6101000a81548161ffff021916908361ffff1602179055505050039050336007600083815260200190815260200160002060006101000a81548173ffffffffffffffffffffffffffffffffffffffff021916908373ffffffffffffffffffffffffffffffffffffffff160217905550600860003373ffffffffffffffffffffffffffffffffffffffff1673ffffffffffffffffffffffffffffffffffffffff168152602001908152602001600020600081548092919060010191905055507f6b0b682eb60f10e65ca2065dceecd9e5d24a08f912cdcb6bf59fb4ded1b3a1048184846040518084815260200180602001838152602001828103825284818151815260200191508051906020019080838360005b83811015610c7b578082015181840152602081019050610c60565b50505050905090810190601f168015610ca85780820380516001836020036101000a031916815260200191505b5094505050505060405180910390a1505050565b828054600181600116156101000203166002900490600052602060002090601f016020900481019282601f10610cfd57805160ff1916838001178555610d2b565b82800160010185558215610d2b579182015b82811115610d2a578251825591602001919060010190610d0f565b5b509050610d389190610d3c565b5090565b610d5e91905b80821115610d5a576000816000905550600101610d42565b5090565b905600a165627a7a723058204f2196ad15ae6a16d6d1705fbdc8e7e51bd5b2fff763acb47bb65c6ebf4cc6270029",
  "source": "pragma solidity ^0.4.20;\n\nimport \"./piratefactory.sol\";\nimport \"./UnigToken.sol\";\n\ncontract PetInterface {\n  //delete view\n  function kidnap(uint256 _id) external view returns (\n    bool isReady,\n    uint256 cooldownIndex,\n    uint256 nextActionAt,\n    uint256 birthTime,\n    uint256 generation,\n    uint256 genes\n  );\n}\n\ncontract PirateFeeding is PirateFactory {\n\n  PetInterface petContract;\n\n  constructor(UnigToken unig) PirateFactory(unig) public{\n  }\n\n  modifier onlyOwnerOf(uint _pirateId) {\n    require(msg.sender == pirateToOwner[_pirateId]);\n    _;\n  }\n\n  function setPetContractAddress(address _address) external onlyOwner {\n    petContract = PetInterface(_address);\n  }\n\n  function _triggerCooldown(Pirate storage _pirate) internal {\n    _pirate.readyTime = uint32(now + cooldownTime);\n  }\n\n  function _isReady(Pirate storage _pirate) internal view returns (bool) {\n      return (_pirate.readyTime <= now);\n  }\n//it would be great to set a function to kidnap pirate's pets---kidnap kitties would be a great stealPirate\n//obviuosly without any real effect so it could be designed another fungible tokens to be pirates pets\n//that could be kidnaped and ask a ransom for them\n//it could then  been designed a token for the game to steal from pirates and to pay ransoms\n  function stealPirate(uint _pirateId, uint _pirateIdEnemy, string typeAttack) internal returns(uint){\n    //Pirate storage myPirate = pirates[_pirateId];\n  //  require(_isReady(myPirate));\n    \n    uni.stealFundsPercent(pirateToOwner[_pirateId],pirateToOwner[_pirateIdEnemy],2);\n    /*if (keccak256(_species) == keccak256(\"attack\")) {\n      \n    }*/\n  //  _triggerCooldown(myPirate);\n    return 1;\n  }\n\n  function _kiddnapPet(uint _pirateId, uint _petId) internal {\n    uint petDna;\n    (,,,,,petDna) = petContract.kidnap(_petId);\n  }\n}\n\n",
  "sourcePath": "/home/freeman/Desktop/dappG/contracts/piratefeeding.sol",
  "compiler": {
    "name": "solc",
    "version": "0.4.24+commit.e67f0147.Emscripten.clang"
  },
  "schemaVersion": "2.0.1",
  "updatedAt": "2018-08-02T23:57:22.266Z"
}