{
  "contractName": "PirateFactory",
  "abi": [
    {
      "constant": true,
      "inputs": [],
      "name": "owner",
      "outputs": [
        {
          "name": "",
          "type": "address"
        }
      ],
      "payable": false,
      "stateMutability": "view",
      "type": "function"
    },
    {
      "constant": true,
      "inputs": [
        {
          "name": "",
          "type": "uint256"
        }
      ],
      "name": "pirates",
      "outputs": [
        {
          "name": "name",
          "type": "string"
        },
        {
          "name": "dna",
          "type": "uint256"
        },
        {
          "name": "level",
          "type": "uint32"
        },
        {
          "name": "readyTime",
          "type": "uint32"
        },
        {
          "name": "winCount",
          "type": "uint16"
        },
        {
          "name": "lossCount",
          "type": "uint16"
        }
      ],
      "payable": false,
      "stateMutability": "view",
      "type": "function"
    },
    {
      "constant": true,
      "inputs": [
        {
          "name": "",
          "type": "uint256"
        }
      ],
      "name": "pirateToOwner",
      "outputs": [
        {
          "name": "",
          "type": "address"
        }
      ],
      "payable": false,
      "stateMutability": "view",
      "type": "function"
    },
    {
      "constant": false,
      "inputs": [
        {
          "name": "newOwner",
          "type": "address"
        }
      ],
      "name": "transferOwnership",
      "outputs": [],
      "payable": false,
      "stateMutability": "nonpayable",
      "type": "function"
    },
    {
      "anonymous": false,
      "inputs": [
        {
          "indexed": false,
          "name": "pirateId",
          "type": "uint256"
        },
        {
          "indexed": false,
          "name": "name",
          "type": "string"
        },
        {
          "indexed": false,
          "name": "dna",
          "type": "uint256"
        }
      ],
      "name": "NewPirate",
      "type": "event"
    },
    {
      "anonymous": false,
      "inputs": [
        {
          "indexed": true,
          "name": "previousOwner",
          "type": "address"
        },
        {
          "indexed": true,
          "name": "newOwner",
          "type": "address"
        }
      ],
      "name": "OwnershipTransferred",
      "type": "event"
    },
    {
      "constant": false,
      "inputs": [
        {
          "name": "_wp",
          "type": "address"
        }
      ],
      "name": "setWeapon",
      "outputs": [],
      "payable": false,
      "stateMutability": "nonpayable",
      "type": "function"
    },
    {
      "constant": false,
      "inputs": [
        {
          "name": "_tk",
          "type": "address"
        }
      ],
      "name": "setToken",
      "outputs": [],
      "payable": false,
      "stateMutability": "nonpayable",
      "type": "function"
    },
    {
      "constant": false,
      "inputs": [
        {
          "name": "_name",
          "type": "string"
        }
      ],
      "name": "createRandomPirate",
      "outputs": [],
      "payable": false,
      "stateMutability": "nonpayable",
      "type": "function"
    },
    {
      "constant": true,
      "inputs": [],
      "name": "getPiratesLenght",
      "outputs": [
        {
          "name": "",
          "type": "uint256"
        }
      ],
      "payable": false,
      "stateMutability": "view",
      "type": "function"
    }
  ],
  "bytecode": "0x60806040526010600155600154600a0a60025562015180600355336000806101000a81548173ffffffffffffffffffffffffffffffffffffffff021916908373ffffffffffffffffffffffffffffffffffffffff160217905550610c14806100686000396000f30060806040526004361061008e576000357c0100000000000000000000000000000000000000000000000000000000900463ffffffff168063144fa6d7146100935780634921ac5c146100d65780638da5cb5b146101015780639741aae914610158578063bf14e9561461019b578063d8e29daa1461028c578063db7e28a0146102f5578063f2fde38b14610362575b600080fd5b34801561009f57600080fd5b506100d4600480360381019080803573ffffffffffffffffffffffffffffffffffffffff1690602001909291905050506103a5565b005b3480156100e257600080fd5b506100eb610444565b6040518082815260200191505060405180910390f35b34801561010d57600080fd5b50610116610451565b604051808273ffffffffffffffffffffffffffffffffffffffff1673ffffffffffffffffffffffffffffffffffffffff16815260200191505060405180910390f35b34801561016457600080fd5b50610199600480360381019080803573ffffffffffffffffffffffffffffffffffffffff169060200190929190505050610476565b005b3480156101a757600080fd5b506101c660048036038101908080359060200190929190505050610515565b60405180806020018781526020018663ffffffff1663ffffffff1681526020018563ffffffff1663ffffffff1681526020018461ffff1661ffff1681526020018361ffff1661ffff168152602001828103825288818151815260200191508051906020019080838360005b8381101561024c578082015181840152602081019050610231565b50505050905090810190601f1680156102795780820380516001836020036101000a031916815260200191505b5097505050505050505060405180910390f35b34801561029857600080fd5b506102f3600480360381019080803590602001908201803590602001908080601f0160208091040260200160405190810160405280939291908181526020018383808284378201915050505050509192919290505050610634565b005b34801561030157600080fd5b50610320600480360381019080803590602001909291905050506106ad565b604051808273ffffffffffffffffffffffffffffffffffffffff1673ffffffffffffffffffffffffffffffffffffffff16815260200191505060405180910390f35b34801561036e57600080fd5b506103a3600480360381019080803573ffffffffffffffffffffffffffffffffffffffff1690602001909291905050506106e0565b005b6000809054906101000a900473ffffffffffffffffffffffffffffffffffffffff1673ffffffffffffffffffffffffffffffffffffffff163373ffffffffffffffffffffffffffffffffffffffff1614151561040057600080fd5b80600560006101000a81548173ffffffffffffffffffffffffffffffffffffffff021916908373ffffffffffffffffffffffffffffffffffffffff16021790555050565b6000600680549050905090565b6000809054906101000a900473ffffffffffffffffffffffffffffffffffffffff1681565b6000809054906101000a900473ffffffffffffffffffffffffffffffffffffffff1673ffffffffffffffffffffffffffffffffffffffff163373ffffffffffffffffffffffffffffffffffffffff161415156104d157600080fd5b80600460006101000a81548173ffffffffffffffffffffffffffffffffffffffff021916908373ffffffffffffffffffffffffffffffffffffffff16021790555050565b60068181548110151561052457fe5b9060005260206000209060030201600091509050806000018054600181600116156101000203166002900480601f0160208091040260200160405190810160405280929190818152602001828054600181600116156101000203166002900480156105d05780601f106105a5576101008083540402835291602001916105d0565b820191906000526020600020905b8154815290600101906020018083116105b357829003601f168201915b5050505050908060010154908060020160009054906101000a900463ffffffff16908060020160049054906101000a900463ffffffff16908060020160089054906101000a900461ffff169080600201600a9054906101000a900461ffff16905086565b600080600860003373ffffffffffffffffffffffffffffffffffffffff1673ffffffffffffffffffffffffffffffffffffffff1681526020019081526020016000205414151561068357600080fd5b61068c82610835565b905060648181151561069a57fe5b06810390506106a982826108b7565b5050565b60076020528060005260406000206000915054906101000a900473ffffffffffffffffffffffffffffffffffffffff1681565b6000809054906101000a900473ffffffffffffffffffffffffffffffffffffffff1673ffffffffffffffffffffffffffffffffffffffff163373ffffffffffffffffffffffffffffffffffffffff1614151561073b57600080fd5b600073ffffffffffffffffffffffffffffffffffffffff168173ffffffffffffffffffffffffffffffffffffffff161415151561077757600080fd5b8073ffffffffffffffffffffffffffffffffffffffff166000809054906101000a900473ffffffffffffffffffffffffffffffffffffffff1673ffffffffffffffffffffffffffffffffffffffff167f8be0079c531659141344cd1fd0a4f28419497f9722a3daafe3b4186f6b6457e060405160405180910390a3806000806101000a81548173ffffffffffffffffffffffffffffffffffffffff021916908373ffffffffffffffffffffffffffffffffffffffff16021790555050565b600080826040518082805190602001908083835b60208310151561086e5780518252602082019150602081019050602083039250610849565b6001836020036101000a0380198251168184511680821785525050505050509050019150506040518091039020600190049050600254818115156108ae57fe5b06915050919050565b60006001600660c060405190810160405280868152602001858152602001600163ffffffff168152602001600354420163ffffffff168152602001600061ffff168152602001600061ffff1681525090806001815401808255809150509060018203906000526020600020906003020160009091929091909150600082015181600001908051906020019061094d929190610b43565b506020820151816001015560408201518160020160006101000a81548163ffffffff021916908363ffffffff16021790555060608201518160020160046101000a81548163ffffffff021916908363ffffffff16021790555060808201518160020160086101000a81548161ffff021916908361ffff16021790555060a082015181600201600a6101000a81548161ffff021916908361ffff1602179055505050039050336007600083815260200190815260200160002060006101000a81548173ffffffffffffffffffffffffffffffffffffffff021916908373ffffffffffffffffffffffffffffffffffffffff160217905550600860003373ffffffffffffffffffffffffffffffffffffffff1673ffffffffffffffffffffffffffffffffffffffff168152602001908152602001600020600081548092919060010191905055507f6b0b682eb60f10e65ca2065dceecd9e5d24a08f912cdcb6bf59fb4ded1b3a1048184846040518084815260200180602001838152602001828103825284818151815260200191508051906020019080838360005b83811015610b02578082015181840152602081019050610ae7565b50505050905090810190601f168015610b2f5780820380516001836020036101000a031916815260200191505b5094505050505060405180910390a1505050565b828054600181600116156101000203166002900490600052602060002090601f016020900481019282601f10610b8457805160ff1916838001178555610bb2565b82800160010185558215610bb2579182015b82811115610bb1578251825591602001919060010190610b96565b5b509050610bbf9190610bc3565b5090565b610be591905b80821115610be1576000816000905550600101610bc9565b5090565b905600a165627a7a72305820c51a10dcbe4cbf922b7a8aa666ac233c4be1343d3ef1f0717240152225a624be0029",
  "source": "pragma solidity ^0.4.20;\n\nimport \"./ownable.sol\";\nimport \"./safemath.sol\";\nimport \"./UnigToken.sol\";\nimport \"./weapon.sol\";\n\ncontract PirateFactory is Ownable {\n\n  using SafeMath for uint256;\n\n  event NewPirate(uint pirateId, string name, uint dna);\n\n  uint dnaDigits = 16;\n  uint dnaModulus = 10 ** dnaDigits;\n  uint cooldownTime = 1 days;\n  ////////////////////////////////////////////weapon//////////////////////\n   Weapon wp;\n   function setWeapon(address _wp) onlyOwner {\n    wp = Weapon(_wp);\n   }\n  /////////////////////////////////////money///////////////////////////////////\n  UnigToken uni;\n\n  function setToken(address _tk) onlyOwner {\n    uni = UnigToken(_tk);\n  }\n\n  struct Pirate {\n    string name;\n    uint dna;\n    uint32 level;\n    uint32 readyTime;\n    uint16 winCount;\n    uint16 lossCount;\n  }\n\n  Pirate[] public pirates;\n\n  mapping (uint => address) public pirateToOwner;\n  mapping (address => uint) ownerPirateCount;\n\n  function _createPirate(string _name, uint _dna) internal {\n    uint id = pirates.push(Pirate(_name, _dna, 1, uint32(now + cooldownTime), 0, 0)) - 1;\n    pirateToOwner[id] = msg.sender;\n    ownerPirateCount[msg.sender]++;\n    emit NewPirate(id, _name, _dna);\n  }\n\n//delete view\n  function _generateRandomDna(string _str) private view returns (uint) {\n    uint rand = uint(keccak256(_str));\n    return rand % dnaModulus;\n  }\n\n  function createRandomPirate(string _name) public {\n    require(ownerPirateCount[msg.sender] == 0);\n    uint randDna = _generateRandomDna(_name);\n    randDna = randDna - randDna % 100;\n    _createPirate(_name, randDna);\n  }\n\n  function getPiratesLenght() public view returns (uint) {\n     return pirates.length;\n }\n\n}\n\n",
  "sourcePath": "/home/freeman/Desktop/dappG/contracts/piratefactory.sol",
  "compiler": {
    "name": "solc",
    "version": "0.4.24+commit.e67f0147.Emscripten.clang"
  },
  "schemaVersion": "2.0.1",
  "updatedAt": "2018-08-02T02:25:40.690Z"
}