{
  "contractName": "Token",
  "abi": [
    {
      "constant": true,
      "inputs": [],
      "name": "totalSupply",
      "outputs": [
        {
          "name": "",
          "type": "uint256"
        }
      ],
      "payable": false,
      "stateMutability": "view",
      "type": "function"
    },
    {
      "constant": true,
      "inputs": [
        {
          "name": "",
          "type": "address"
        }
      ],
      "name": "balances",
      "outputs": [
        {
          "name": "",
          "type": "uint256"
        }
      ],
      "payable": false,
      "stateMutability": "view",
      "type": "function"
    },
    {
      "anonymous": false,
      "inputs": [
        {
          "indexed": true,
          "name": "from",
          "type": "address"
        },
        {
          "indexed": true,
          "name": "to",
          "type": "address"
        },
        {
          "indexed": false,
          "name": "value",
          "type": "uint256"
        },
        {
          "indexed": false,
          "name": "data",
          "type": "bytes"
        }
      ],
      "name": "Transfer",
      "type": "event"
    },
    {
      "constant": false,
      "inputs": [
        {
          "name": "_to",
          "type": "address"
        },
        {
          "name": "_value",
          "type": "uint256"
        }
      ],
      "name": "transfer",
      "outputs": [
        {
          "name": "success",
          "type": "bool"
        }
      ],
      "payable": false,
      "stateMutability": "nonpayable",
      "type": "function"
    },
    {
      "constant": false,
      "inputs": [
        {
          "name": "_to",
          "type": "address"
        },
        {
          "name": "_value",
          "type": "uint256"
        },
        {
          "name": "_data",
          "type": "bytes"
        }
      ],
      "name": "transfer",
      "outputs": [
        {
          "name": "success",
          "type": "bool"
        }
      ],
      "payable": false,
      "stateMutability": "nonpayable",
      "type": "function"
    },
    {
      "constant": true,
      "inputs": [
        {
          "name": "_owner",
          "type": "address"
        }
      ],
      "name": "balanceOf",
      "outputs": [
        {
          "name": "balance",
          "type": "uint256"
        }
      ],
      "payable": false,
      "stateMutability": "view",
      "type": "function"
    }
  ],
  "bytecode": "0x608060405234801561001057600080fd5b50610824806100206000396000f30060806040526004361061006d576000357c0100000000000000000000000000000000000000000000000000000000900463ffffffff16806318160ddd1461007257806327e235e31461009d57806370a08231146100f4578063a9059cbb1461014b578063be45fd62146101b0575b600080fd5b34801561007e57600080fd5b5061008761025b565b6040518082815260200191505060405180910390f35b3480156100a957600080fd5b506100de600480360381019080803573ffffffffffffffffffffffffffffffffffffffff169060200190929190505050610261565b6040518082815260200191505060405180910390f35b34801561010057600080fd5b50610135600480360381019080803573ffffffffffffffffffffffffffffffffffffffff169060200190929190505050610279565b6040518082815260200191505060405180910390f35b34801561015757600080fd5b50610196600480360381019080803573ffffffffffffffffffffffffffffffffffffffff169060200190929190803590602001909291905050506102c2565b604051808215151515815260200191505060405180910390f35b3480156101bc57600080fd5b50610241600480360381019080803573ffffffffffffffffffffffffffffffffffffffff16906020019092919080359060200190929190803590602001908201803590602001908080601f01602080910402602001604051908101604052809392919081815260200183838082843782019150505050505091929192905050506102fb565b604051808215151515815260200191505060405180910390f35b60005481565b60016020528060005260406000206000915090505481565b6000600160008373ffffffffffffffffffffffffffffffffffffffff1673ffffffffffffffffffffffffffffffffffffffff168152602001908152602001600020549050919050565b600060606102cf84610332565b156102e6576102df848483610345565b91506102f4565b6102f1848483610611565b91505b5092915050565b600061030684610332565b1561031d57610316848484610345565b905061032b565b610328848484610611565b90505b9392505050565b600080823b905060008111915050919050565b6000808361035233610279565b11151561035e57600080fd5b61037061036a33610279565b856107b0565b600160003373ffffffffffffffffffffffffffffffffffffffff1673ffffffffffffffffffffffffffffffffffffffff168152602001908152602001600020819055506103c56103bf86610279565b856107ce565b600160008773ffffffffffffffffffffffffffffffffffffffff1673ffffffffffffffffffffffffffffffffffffffff168152602001908152602001600020819055508490508073ffffffffffffffffffffffffffffffffffffffff1663c0ee0b8a3386866040518463ffffffff167c0100000000000000000000000000000000000000000000000000000000028152600401808473ffffffffffffffffffffffffffffffffffffffff1673ffffffffffffffffffffffffffffffffffffffff16815260200183815260200180602001828103825283818151815260200191508051906020019080838360005b838110156104cd5780820151818401526020810190506104b2565b50505050905090810190601f1680156104fa5780820380516001836020036101000a031916815260200191505b50945050505050600060405180830381600087803b15801561051b57600080fd5b505af115801561052f573d6000803e3d6000fd5b505050508473ffffffffffffffffffffffffffffffffffffffff163373ffffffffffffffffffffffffffffffffffffffff167fe19260aff97b920c7df27010903aeb9c8d2be5d310a2c67824cf3f15396e4c1686866040518083815260200180602001828103825283818151815260200191508051906020019080838360005b838110156105ca5780820151818401526020810190506105af565b50505050905090810190601f1680156105f75780820380516001836020036101000a031916815260200191505b50935050505060405180910390a360019150509392505050565b60008261061d33610279565b11151561062957600080fd5b61063b61063533610279565b846107b0565b600160003373ffffffffffffffffffffffffffffffffffffffff1673ffffffffffffffffffffffffffffffffffffffff1681526020019081526020016000208190555061069061068a85610279565b846107ce565b600160008673ffffffffffffffffffffffffffffffffffffffff1673ffffffffffffffffffffffffffffffffffffffff168152602001908152602001600020819055508373ffffffffffffffffffffffffffffffffffffffff163373ffffffffffffffffffffffffffffffffffffffff167fe19260aff97b920c7df27010903aeb9c8d2be5d310a2c67824cf3f15396e4c1685856040518083815260200180602001828103825283818151815260200191508051906020019080838360005b8381101561076a57808201518184015260208101905061074f565b50505050905090810190601f1680156107975780820380516001836020036101000a031916815260200191505b50935050505060405180910390a3600190509392505050565b6000808284101515156107bf57fe5b82840390508091505092915050565b60008082840190508381101580156107e65750828110155b15156107ee57fe5b80915050929150505600a165627a7a7230582027841ea29db4a069fa1ffcae8a0fe0bbc56720c33917a49c28bd0e70cdfff4170029",
  "source": "pragma solidity ^0.4.20;\nimport \"./ERC223.sol\";\nimport \"./MathLib.sol\";\nimport \"./ContractReceiver.sol\";\n\ncontract Token is ERC223, MathLib {\n\n  /**\n   * @dev Fix for the ERC20 short address attack.\n   */\n  modifier onlyPayloadSize(uint size) {\n     require(msg.data.length >= size + 4) ;\n     _;\n  }\n\n  mapping(address => uint) public balances;\n\n  function transfer(address _to, uint _value, bytes _data) returns (bool success) {\n\n    if(isContract(_to)) {\n        return transferToContract(_to, _value, _data);\n    }\n    return transferToAddress(_to, _value, _data);\n  }\n\n  function transfer(address _to, uint _value) returns (bool success) {\n        bytes memory empty;\n        if(isContract(_to)) {\n          return transferToContract(_to, _value, empty);\n        }\n        return transferToAddress(_to, _value, empty);\n  }\n\n  function isContract(address _addr) private returns (bool is_contract) {\n     uint length;\n     assembly {\n           //retrieve the size of the code on target address, this needs assembly\n           length := extcodesize(_addr)\n     }\n     return (length>0);\n  }\n//when transaction target is a contract\n  function transferToContract(address _to, uint _value, bytes _data) private returns (bool success) {\n    require(balanceOf(msg.sender) > _value);\n    balances[msg.sender] = safeSubtract(balanceOf(msg.sender), _value);\n    balances[_to] = safeAdd(balanceOf(_to), _value);\n    ContractReceiver receiver = ContractReceiver(_to);\n    receiver.tokenFallback(msg.sender, _value, _data);\n    Transfer(msg.sender, _to, _value, _data);\n    return true;\n  }\n\n//when transaction target is an address\nfunction transferToAddress(address _to, uint _value, bytes _data) private returns (bool success) {\n  require(balanceOf(msg.sender) > _value);\n  balances[msg.sender] = safeSubtract(balanceOf(msg.sender), _value);\n  balances[_to] = safeAdd(balanceOf(_to), _value);\n  Transfer(msg.sender, _to, _value, _data);\n  return true;\n}\n\n\n\n  function balanceOf(address _owner) public constant returns (uint balance) {\n    return balances[_owner];\n  }\n\n\n\n}\n",
  "sourcePath": "/home/freeman/Desktop/dappG/contracts/Token.sol",
  "compiler": {
    "name": "solc",
    "version": "0.4.24+commit.e67f0147.Emscripten.clang"
  },
  "schemaVersion": "2.0.1",
  "updatedAt": "2018-08-02T02:25:40.711Z"
}