{
  "contractName": "Token",
  "abi": [
    {
      "constant": true,
      "inputs": [],
      "name": "totalSupply",
      "outputs": [
        {
          "name": "",
          "type": "uint256"
        }
      ],
      "payable": false,
      "stateMutability": "view",
      "type": "function"
    },
    {
      "anonymous": false,
      "inputs": [
        {
          "indexed": true,
          "name": "from",
          "type": "address"
        },
        {
          "indexed": true,
          "name": "to",
          "type": "address"
        },
        {
          "indexed": false,
          "name": "value",
          "type": "uint256"
        },
        {
          "indexed": false,
          "name": "data",
          "type": "bytes"
        }
      ],
      "name": "Transfer",
      "type": "event"
    },
    {
      "constant": false,
      "inputs": [
        {
          "name": "_to",
          "type": "address"
        },
        {
          "name": "_value",
          "type": "uint256"
        }
      ],
      "name": "transfer",
      "outputs": [
        {
          "name": "success",
          "type": "bool"
        }
      ],
      "payable": false,
      "stateMutability": "nonpayable",
      "type": "function"
    },
    {
      "constant": false,
      "inputs": [
        {
          "name": "_to",
          "type": "address"
        },
        {
          "name": "_value",
          "type": "uint256"
        },
        {
          "name": "_data",
          "type": "bytes"
        }
      ],
      "name": "transfer",
      "outputs": [
        {
          "name": "success",
          "type": "bool"
        }
      ],
      "payable": false,
      "stateMutability": "nonpayable",
      "type": "function"
    },
    {
      "constant": true,
      "inputs": [
        {
          "name": "_owner",
          "type": "address"
        }
      ],
      "name": "balanceOf",
      "outputs": [
        {
          "name": "balance",
          "type": "uint256"
        }
      ],
      "payable": false,
      "stateMutability": "view",
      "type": "function"
    }
  ],
  "bytecode": "0x608060405234801561001057600080fd5b506107aa806100206000396000f300608060405260043610610062576000357c0100000000000000000000000000000000000000000000000000000000900463ffffffff16806318160ddd1461006757806370a0823114610092578063a9059cbb146100e9578063be45fd621461014e575b600080fd5b34801561007357600080fd5b5061007c6101f9565b6040518082815260200191505060405180910390f35b34801561009e57600080fd5b506100d3600480360381019080803573ffffffffffffffffffffffffffffffffffffffff1690602001909291905050506101ff565b6040518082815260200191505060405180910390f35b3480156100f557600080fd5b50610134600480360381019080803573ffffffffffffffffffffffffffffffffffffffff16906020019092919080359060200190929190505050610248565b604051808215151515815260200191505060405180910390f35b34801561015a57600080fd5b506101df600480360381019080803573ffffffffffffffffffffffffffffffffffffffff16906020019092919080359060200190929190803590602001908201803590602001908080601f0160208091040260200160405190810160405280939291908181526020018383808284378201915050505050509192919290505050610281565b604051808215151515815260200191505060405180910390f35b60005481565b6000600160008373ffffffffffffffffffffffffffffffffffffffff1673ffffffffffffffffffffffffffffffffffffffff168152602001908152602001600020549050919050565b60006060610255846102b8565b1561026c576102658484836102cb565b915061027a565b610277848483610597565b91505b5092915050565b600061028c846102b8565b156102a35761029c8484846102cb565b90506102b1565b6102ae848484610597565b90505b9392505050565b600080823b905060008111915050919050565b600080836102d8336101ff565b1115156102e457600080fd5b6102f66102f0336101ff565b85610736565b600160003373ffffffffffffffffffffffffffffffffffffffff1673ffffffffffffffffffffffffffffffffffffffff1681526020019081526020016000208190555061034b610345866101ff565b85610754565b600160008773ffffffffffffffffffffffffffffffffffffffff1673ffffffffffffffffffffffffffffffffffffffff168152602001908152602001600020819055508490508073ffffffffffffffffffffffffffffffffffffffff1663c0ee0b8a3386866040518463ffffffff167c0100000000000000000000000000000000000000000000000000000000028152600401808473ffffffffffffffffffffffffffffffffffffffff1673ffffffffffffffffffffffffffffffffffffffff16815260200183815260200180602001828103825283818151815260200191508051906020019080838360005b83811015610453578082015181840152602081019050610438565b50505050905090810190601f1680156104805780820380516001836020036101000a031916815260200191505b50945050505050600060405180830381600087803b1580156104a157600080fd5b505af11580156104b5573d6000803e3d6000fd5b505050508473ffffffffffffffffffffffffffffffffffffffff163373ffffffffffffffffffffffffffffffffffffffff167fe19260aff97b920c7df27010903aeb9c8d2be5d310a2c67824cf3f15396e4c1686866040518083815260200180602001828103825283818151815260200191508051906020019080838360005b83811015610550578082015181840152602081019050610535565b50505050905090810190601f16801561057d5780820380516001836020036101000a031916815260200191505b50935050505060405180910390a360019150509392505050565b6000826105a3336101ff565b1115156105af57600080fd5b6105c16105bb336101ff565b84610736565b600160003373ffffffffffffffffffffffffffffffffffffffff1673ffffffffffffffffffffffffffffffffffffffff16815260200190815260200160002081905550610616610610856101ff565b84610754565b600160008673ffffffffffffffffffffffffffffffffffffffff1673ffffffffffffffffffffffffffffffffffffffff168152602001908152602001600020819055508373ffffffffffffffffffffffffffffffffffffffff163373ffffffffffffffffffffffffffffffffffffffff167fe19260aff97b920c7df27010903aeb9c8d2be5d310a2c67824cf3f15396e4c1685856040518083815260200180602001828103825283818151815260200191508051906020019080838360005b838110156106f05780820151818401526020810190506106d5565b50505050905090810190601f16801561071d5780820380516001836020036101000a031916815260200191505b50935050505060405180910390a3600190509392505050565b60008082841015151561074557fe5b82840390508091505092915050565b600080828401905083811015801561076c5750828110155b151561077457fe5b80915050929150505600a165627a7a72305820d651c753256c50f6746634a1ada211a10d406947b9b4f21649d98c0e9a08c4370029",
  "source": "pragma solidity ^0.4.20;\nimport \"./ERC223.sol\";\nimport \"./MathLib.sol\";\nimport \"./ContractReceiver.sol\";\n\ncontract Token is ERC223, MathLib {\n\n  /**\n   * @dev Fix for the ERC20 short address attack.\n   */\n  modifier onlyPayloadSize(uint size) {\n     require(msg.data.length >= size + 4) ;\n     _;\n  }\n\n  mapping(address => uint) balances;\n\n  function transfer(address _to, uint _value, bytes _data) returns (bool success) {\n\n    if(isContract(_to)) {\n        return transferToContract(_to, _value, _data);\n    }\n    return transferToAddress(_to, _value, _data);\n  }\n\n  function transfer(address _to, uint _value) returns (bool success) {\n        bytes memory empty;\n        if(isContract(_to)) {\n          return transferToContract(_to, _value, empty);\n        }\n        return transferToAddress(_to, _value, empty);\n  }\n\n  function isContract(address _addr) private returns (bool is_contract) {\n     uint length;\n     assembly {\n           //retrieve the size of the code on target address, this needs assembly\n           length := extcodesize(_addr)\n     }\n     return (length>0);\n  }\n//when transaction target is a contract\n  function transferToContract(address _to, uint _value, bytes _data) private returns (bool success) {\n    require(balanceOf(msg.sender) > _value);\n    balances[msg.sender] = safeSubtract(balanceOf(msg.sender), _value);\n    balances[_to] = safeAdd(balanceOf(_to), _value);\n    ContractReceiver receiver = ContractReceiver(_to);\n    receiver.tokenFallback(msg.sender, _value, _data);\n    Transfer(msg.sender, _to, _value, _data);\n    return true;\n  }\n\n//when transaction target is an address\nfunction transferToAddress(address _to, uint _value, bytes _data) private returns (bool success) {\n  require(balanceOf(msg.sender) > _value);\n  balances[msg.sender] = safeSubtract(balanceOf(msg.sender), _value);\n  balances[_to] = safeAdd(balanceOf(_to), _value);\n  Transfer(msg.sender, _to, _value, _data);\n  return true;\n}\n\n\n\n  function balanceOf(address _owner) constant returns (uint balance) {\n    return balances[_owner];\n  }\n\n\n\n}\n",
  "sourcePath": "/home/freeman/Desktop/dappG/contracts/Token.sol",
  "compiler": {
    "name": "solc",
    "version": "0.4.24+commit.e67f0147.Emscripten.clang"
  },
  "schemaVersion": "2.0.1",
  "updatedAt": "2018-08-01T20:47:24.553Z"
}