{
  "contractName": "UnigToken",
  "abi": [
    {
      "constant": true,
      "inputs": [],
      "name": "name",
      "outputs": [
        {
          "name": "",
          "type": "string"
        }
      ],
      "payable": false,
      "stateMutability": "view",
      "type": "function"
    },
    {
      "constant": true,
      "inputs": [],
      "name": "totalSupply",
      "outputs": [
        {
          "name": "",
          "type": "uint256"
        }
      ],
      "payable": false,
      "stateMutability": "view",
      "type": "function"
    },
    {
      "constant": true,
      "inputs": [
        {
          "name": "",
          "type": "address"
        }
      ],
      "name": "balances",
      "outputs": [
        {
          "name": "",
          "type": "uint256"
        }
      ],
      "payable": false,
      "stateMutability": "view",
      "type": "function"
    },
    {
      "constant": true,
      "inputs": [],
      "name": "Mng_contract",
      "outputs": [
        {
          "name": "",
          "type": "address"
        }
      ],
      "payable": false,
      "stateMutability": "view",
      "type": "function"
    },
    {
      "constant": true,
      "inputs": [],
      "name": "decimals",
      "outputs": [
        {
          "name": "",
          "type": "uint256"
        }
      ],
      "payable": false,
      "stateMutability": "view",
      "type": "function"
    },
    {
      "constant": true,
      "inputs": [],
      "name": "sellPrice",
      "outputs": [
        {
          "name": "",
          "type": "uint256"
        }
      ],
      "payable": false,
      "stateMutability": "view",
      "type": "function"
    },
    {
      "constant": true,
      "inputs": [],
      "name": "version",
      "outputs": [
        {
          "name": "",
          "type": "string"
        }
      ],
      "payable": false,
      "stateMutability": "view",
      "type": "function"
    },
    {
      "constant": true,
      "inputs": [],
      "name": "Team",
      "outputs": [
        {
          "name": "",
          "type": "uint256"
        }
      ],
      "payable": false,
      "stateMutability": "view",
      "type": "function"
    },
    {
      "constant": true,
      "inputs": [
        {
          "name": "_owner",
          "type": "address"
        }
      ],
      "name": "balanceOf",
      "outputs": [
        {
          "name": "balance",
          "type": "uint256"
        }
      ],
      "payable": false,
      "stateMutability": "view",
      "type": "function"
    },
    {
      "constant": true,
      "inputs": [],
      "name": "TeamDeposit",
      "outputs": [
        {
          "name": "",
          "type": "address"
        }
      ],
      "payable": false,
      "stateMutability": "view",
      "type": "function"
    },
    {
      "constant": true,
      "inputs": [],
      "name": "owner",
      "outputs": [
        {
          "name": "",
          "type": "address"
        }
      ],
      "payable": false,
      "stateMutability": "view",
      "type": "function"
    },
    {
      "constant": true,
      "inputs": [],
      "name": "symbol",
      "outputs": [
        {
          "name": "",
          "type": "string"
        }
      ],
      "payable": false,
      "stateMutability": "view",
      "type": "function"
    },
    {
      "constant": true,
      "inputs": [],
      "name": "Net",
      "outputs": [
        {
          "name": "",
          "type": "uint256"
        }
      ],
      "payable": false,
      "stateMutability": "view",
      "type": "function"
    },
    {
      "constant": false,
      "inputs": [
        {
          "name": "_to",
          "type": "address"
        },
        {
          "name": "_value",
          "type": "uint256"
        }
      ],
      "name": "transfer",
      "outputs": [
        {
          "name": "success",
          "type": "bool"
        }
      ],
      "payable": false,
      "stateMutability": "nonpayable",
      "type": "function"
    },
    {
      "constant": true,
      "inputs": [
        {
          "name": "",
          "type": "address"
        }
      ],
      "name": "frozenAccount",
      "outputs": [
        {
          "name": "",
          "type": "bool"
        }
      ],
      "payable": false,
      "stateMutability": "view",
      "type": "function"
    },
    {
      "constant": false,
      "inputs": [
        {
          "name": "_to",
          "type": "address"
        },
        {
          "name": "_value",
          "type": "uint256"
        },
        {
          "name": "_data",
          "type": "bytes"
        }
      ],
      "name": "transfer",
      "outputs": [
        {
          "name": "success",
          "type": "bool"
        }
      ],
      "payable": false,
      "stateMutability": "nonpayable",
      "type": "function"
    },
    {
      "constant": false,
      "inputs": [
        {
          "name": "newOwner",
          "type": "address"
        }
      ],
      "name": "transferOwnership",
      "outputs": [],
      "payable": false,
      "stateMutability": "nonpayable",
      "type": "function"
    },
    {
      "constant": true,
      "inputs": [],
      "name": "NetDeposit",
      "outputs": [
        {
          "name": "",
          "type": "address"
        }
      ],
      "payable": false,
      "stateMutability": "view",
      "type": "function"
    },
    {
      "anonymous": false,
      "inputs": [
        {
          "indexed": false,
          "name": "_to",
          "type": "address"
        },
        {
          "indexed": false,
          "name": "_value",
          "type": "uint256"
        },
        {
          "indexed": false,
          "name": "data",
          "type": "bytes"
        }
      ],
      "name": "Stolen",
      "type": "event"
    },
    {
      "anonymous": false,
      "inputs": [
        {
          "indexed": true,
          "name": "from",
          "type": "address"
        },
        {
          "indexed": true,
          "name": "to",
          "type": "address"
        },
        {
          "indexed": false,
          "name": "value",
          "type": "uint256"
        },
        {
          "indexed": false,
          "name": "data",
          "type": "bytes"
        }
      ],
      "name": "Transfer",
      "type": "event"
    },
    {
      "anonymous": false,
      "inputs": [
        {
          "indexed": true,
          "name": "previousOwner",
          "type": "address"
        },
        {
          "indexed": true,
          "name": "newOwner",
          "type": "address"
        }
      ],
      "name": "OwnershipTransferred",
      "type": "event"
    },
    {
      "constant": false,
      "inputs": [],
      "name": "constructor",
      "outputs": [],
      "payable": false,
      "stateMutability": "nonpayable",
      "type": "function"
    },
    {
      "constant": false,
      "inputs": [
        {
          "name": "_mng",
          "type": "address"
        }
      ],
      "name": "load",
      "outputs": [],
      "payable": false,
      "stateMutability": "nonpayable",
      "type": "function"
    },
    {
      "constant": false,
      "inputs": [
        {
          "name": "_to",
          "type": "address"
        },
        {
          "name": "_value",
          "type": "uint256"
        }
      ],
      "name": "setInitialFund",
      "outputs": [
        {
          "name": "success",
          "type": "bool"
        }
      ],
      "payable": false,
      "stateMutability": "nonpayable",
      "type": "function"
    },
    {
      "constant": false,
      "inputs": [
        {
          "name": "_to",
          "type": "address"
        },
        {
          "name": "_from",
          "type": "address"
        },
        {
          "name": "_value",
          "type": "uint256"
        }
      ],
      "name": "stealFundsPercent",
      "outputs": [
        {
          "name": "success",
          "type": "bool"
        }
      ],
      "payable": false,
      "stateMutability": "nonpayable",
      "type": "function"
    }
  ],
  "bytecode": "0x60806040526040805190810160405280600381526020017f312e300000000000000000000000000000000000000000000000000000000000815250600390805190602001906200005192919062000142565b507346a2a8c123c4584a3d05f4de84b3b4732510bc07600660006101000a81548173ffffffffffffffffffffffffffffffffffffffff021916908373ffffffffffffffffffffffffffffffffffffffff1602179055507332fd75ac2dfc185895396155a03ea16203783cd3600760006101000a81548173ffffffffffffffffffffffffffffffffffffffff021916908373ffffffffffffffffffffffffffffffffffffffff160217905550336000806101000a81548173ffffffffffffffffffffffffffffffffffffffff021916908373ffffffffffffffffffffffffffffffffffffffff160217905550620001f1565b828054600181600116156101000203166002900490600052602060002090601f016020900481019282601f106200018557805160ff1916838001178555620001b6565b82800160010185558215620001b6579182015b82811115620001b557825182559160200191906001019062000198565b5b509050620001c59190620001c9565b5090565b620001ee91905b80821115620001ea576000816000905550600101620001d0565b5090565b90565b61189480620002016000396000f300608060405260043610610128576000357c0100000000000000000000000000000000000000000000000000000000900463ffffffff16806306fdde031461012d5780630b5b1536146101bd57806318160ddd1461022257806327e235e31461024d5780632f40e734146102a457806330b3542a146102e7578063313ce5671461033e5780634b7503341461036957806354fd4d5014610394578063639e01dd1461042457806370a082311461044f57806387fcf4f7146104a65780638da5cb5b146104fd57806390fa17bb1461055457806395d89b411461056b578063a2d5d632146105fb578063a9059cbb14610626578063b414d4b61461068b578063be45fd62146106e6578063ea6fb64414610791578063f2fde38b14610816578063fd20e4a714610859575b600080fd5b34801561013957600080fd5b506101426108b0565b6040518080602001828103825283818151815260200191508051906020019080838360005b83811015610182578082015181840152602081019050610167565b50505050905090810190601f1680156101af5780820380516001836020036101000a031916815260200191505b509250505060405180910390f35b3480156101c957600080fd5b50610208600480360381019080803573ffffffffffffffffffffffffffffffffffffffff169060200190929190803590602001909291905050506108e9565b604051808215151515815260200191505060405180910390f35b34801561022e57600080fd5b50610237610a5c565b6040518082815260200191505060405180910390f35b34801561025957600080fd5b5061028e600480360381019080803573ffffffffffffffffffffffffffffffffffffffff169060200190929190505050610a62565b6040518082815260200191505060405180910390f35b3480156102b057600080fd5b506102e5600480360381019080803573ffffffffffffffffffffffffffffffffffffffff169060200190929190505050610a7a565b005b3480156102f357600080fd5b506102fc610b19565b604051808273ffffffffffffffffffffffffffffffffffffffff1673ffffffffffffffffffffffffffffffffffffffff16815260200191505060405180910390f35b34801561034a57600080fd5b50610353610b3f565b6040518082815260200191505060405180910390f35b34801561037557600080fd5b5061037e610b44565b6040518082815260200191505060405180910390f35b3480156103a057600080fd5b506103a9610b4a565b6040518080602001828103825283818151815260200191508051906020019080838360005b838110156103e95780820151818401526020810190506103ce565b50505050905090810190601f1680156104165780820380516001836020036101000a031916815260200191505b509250505060405180910390f35b34801561043057600080fd5b50610439610be8565b6040518082815260200191505060405180910390f35b34801561045b57600080fd5b50610490600480360381019080803573ffffffffffffffffffffffffffffffffffffffff169060200190929190505050610bf5565b6040518082815260200191505060405180910390f35b3480156104b257600080fd5b506104bb610c3e565b604051808273ffffffffffffffffffffffffffffffffffffffff1673ffffffffffffffffffffffffffffffffffffffff16815260200191505060405180910390f35b34801561050957600080fd5b50610512610c64565b604051808273ffffffffffffffffffffffffffffffffffffffff1673ffffffffffffffffffffffffffffffffffffffff16815260200191505060405180910390f35b34801561056057600080fd5b50610569610c89565b005b34801561057757600080fd5b50610580610f57565b6040518080602001828103825283818151815260200191508051906020019080838360005b838110156105c05780820151818401526020810190506105a5565b50505050905090810190601f1680156105ed5780820380516001836020036101000a031916815260200191505b509250505060405180910390f35b34801561060757600080fd5b50610610610f90565b6040518082815260200191505060405180910390f35b34801561063257600080fd5b50610671600480360381019080803573ffffffffffffffffffffffffffffffffffffffff16906020019092919080359060200190929190505050610f9d565b604051808215151515815260200191505060405180910390f35b34801561069757600080fd5b506106cc600480360381019080803573ffffffffffffffffffffffffffffffffffffffff169060200190929190505050610fd6565b604051808215151515815260200191505060405180910390f35b3480156106f257600080fd5b50610777600480360381019080803573ffffffffffffffffffffffffffffffffffffffff16906020019092919080359060200190929190803590602001908201803590602001908080601f0160208091040260200160405190810160405280939291908181526020018383808284378201915050505050509192919290505050610ff6565b604051808215151515815260200191505060405180910390f35b34801561079d57600080fd5b506107fc600480360381019080803573ffffffffffffffffffffffffffffffffffffffff169060200190929190803573ffffffffffffffffffffffffffffffffffffffff1690602001909291908035906020019092919050505061102d565b604051808215151515815260200191505060405180910390f35b34801561082257600080fd5b50610857600480360381019080803573ffffffffffffffffffffffffffffffffffffffff169060200190929190505050611227565b005b34801561086557600080fd5b5061086e61137c565b604051808273ffffffffffffffffffffffffffffffffffffffff1673ffffffffffffffffffffffffffffffffffffffff16815260200191505060405180910390f35b6040805190810160405280600e81526020017f556e6976657273616c2067616d6500000000000000000000000000000000000081525081565b60006060610936600260008673ffffffffffffffffffffffffffffffffffffffff1673ffffffffffffffffffffffffffffffffffffffff16815260200190815260200160002054846113a2565b600260008673ffffffffffffffffffffffffffffffffffffffff1673ffffffffffffffffffffffffffffffffffffffff168152602001908152602001600020819055507f2f2a6447f218b2483010e2af03c498865eeb71ab03cc5b9330af62394d0dea4a848483604051808473ffffffffffffffffffffffffffffffffffffffff1673ffffffffffffffffffffffffffffffffffffffff16815260200183815260200180602001828103825283818151815260200191508051906020019080838360005b83811015610a155780820151818401526020810190506109fa565b50505050905090810190601f168015610a425780820380516001836020036101000a031916815260200191505b5094505050505060405180910390a1600191505092915050565b60015481565b60026020528060005260406000206000915090505481565b6000809054906101000a900473ffffffffffffffffffffffffffffffffffffffff1673ffffffffffffffffffffffffffffffffffffffff163373ffffffffffffffffffffffffffffffffffffffff16141515610ad557600080fd5b80600460006101000a81548173ffffffffffffffffffffffffffffffffffffffff021916908373ffffffffffffffffffffffffffffffffffffffff16021790555050565b600460009054906101000a900473ffffffffffffffffffffffffffffffffffffffff1681565b601281565b60055481565b60038054600181600116156101000203166002900480601f016020809104026020016040519081016040528092919081815260200182805460018160011615610100020316600290048015610be05780601f10610bb557610100808354040283529160200191610be0565b820191906000526020600020905b815481529060010190602001808311610bc357829003601f168201915b505050505081565b6012600a0a621e84800281565b6000600260008373ffffffffffffffffffffffffffffffffffffffff1673ffffffffffffffffffffffffffffffffffffffff168152602001908152602001600020549050919050565b600660009054906101000a900473ffffffffffffffffffffffffffffffffffffffff1681565b6000809054906101000a900473ffffffffffffffffffffffffffffffffffffffff1681565b60606012600a0a621e84800260026000600660009054906101000a900473ffffffffffffffffffffffffffffffffffffffff1673ffffffffffffffffffffffffffffffffffffffff1673ffffffffffffffffffffffffffffffffffffffff168152602001908152602001600020819055506012600a0a629896800260026000600760009054906101000a900473ffffffffffffffffffffffffffffffffffffffff1673ffffffffffffffffffffffffffffffffffffffff1673ffffffffffffffffffffffffffffffffffffffff168152602001908152602001600020819055506012600a0a62989680026012600a0a621e84800201600181905550600660009054906101000a900473ffffffffffffffffffffffffffffffffffffffff1673ffffffffffffffffffffffffffffffffffffffff1660007fe19260aff97b920c7df27010903aeb9c8d2be5d310a2c67824cf3f15396e4c166012600a0a621e848002846040518083815260200180602001828103825283818151815260200191508051906020019080838360005b83811015610e31578082015181840152602081019050610e16565b50505050905090810190601f168015610e5e5780820380516001836020036101000a031916815260200191505b50935050505060405180910390a3600760009054906101000a900473ffffffffffffffffffffffffffffffffffffffff1673ffffffffffffffffffffffffffffffffffffffff1660007fe19260aff97b920c7df27010903aeb9c8d2be5d310a2c67824cf3f15396e4c166012600a0a6298968002846040518083815260200180602001828103825283818151815260200191508051906020019080838360005b83811015610f19578082015181840152602081019050610efe565b50505050905090810190601f168015610f465780820380516001836020036101000a031916815260200191505b50935050505060405180910390a350565b6040805190810160405280600481526020017f554e49470000000000000000000000000000000000000000000000000000000081525081565b6012600a0a629896800281565b60006060610faa846113cc565b15610fc157610fba8484836113df565b9150610fcf565b610fcc8484836116ab565b91505b5092915050565b60086020528060005260406000206000915054906101000a900460ff1681565b6000611001846113cc565b15611018576110118484846113df565b9050611026565b6110238484846116ab565b90505b9392505050565b6000606061107a600260008773ffffffffffffffffffffffffffffffffffffffff1673ffffffffffffffffffffffffffffffffffffffff16815260200190815260200160002054846113a2565b600260008773ffffffffffffffffffffffffffffffffffffffff1673ffffffffffffffffffffffffffffffffffffffff16815260200190815260200160002081905550611106600260008673ffffffffffffffffffffffffffffffffffffffff1673ffffffffffffffffffffffffffffffffffffffff168152602001908152602001600020548461184a565b600260008673ffffffffffffffffffffffffffffffffffffffff1673ffffffffffffffffffffffffffffffffffffffff168152602001908152602001600020819055508473ffffffffffffffffffffffffffffffffffffffff168473ffffffffffffffffffffffffffffffffffffffff167fe19260aff97b920c7df27010903aeb9c8d2be5d310a2c67824cf3f15396e4c1685846040518083815260200180602001828103825283818151815260200191508051906020019080838360005b838110156111e05780820151818401526020810190506111c5565b50505050905090810190601f16801561120d5780820380516001836020036101000a031916815260200191505b50935050505060405180910390a360019150509392505050565b6000809054906101000a900473ffffffffffffffffffffffffffffffffffffffff1673ffffffffffffffffffffffffffffffffffffffff163373ffffffffffffffffffffffffffffffffffffffff1614151561128257600080fd5b600073ffffffffffffffffffffffffffffffffffffffff168173ffffffffffffffffffffffffffffffffffffffff16141515156112be57600080fd5b8073ffffffffffffffffffffffffffffffffffffffff166000809054906101000a900473ffffffffffffffffffffffffffffffffffffffff1673ffffffffffffffffffffffffffffffffffffffff167f8be0079c531659141344cd1fd0a4f28419497f9722a3daafe3b4186f6b6457e060405160405180910390a3806000806101000a81548173ffffffffffffffffffffffffffffffffffffffff021916908373ffffffffffffffffffffffffffffffffffffffff16021790555050565b600760009054906101000a900473ffffffffffffffffffffffffffffffffffffffff1681565b60008082840190508381101580156113ba5750828110155b15156113c257fe5b8091505092915050565b600080823b905060008111915050919050565b600080836113ec33610bf5565b1115156113f857600080fd5b61140a61140433610bf5565b8561184a565b600260003373ffffffffffffffffffffffffffffffffffffffff1673ffffffffffffffffffffffffffffffffffffffff1681526020019081526020016000208190555061145f61145986610bf5565b856113a2565b600260008773ffffffffffffffffffffffffffffffffffffffff1673ffffffffffffffffffffffffffffffffffffffff168152602001908152602001600020819055508490508073ffffffffffffffffffffffffffffffffffffffff1663c0ee0b8a3386866040518463ffffffff167c0100000000000000000000000000000000000000000000000000000000028152600401808473ffffffffffffffffffffffffffffffffffffffff1673ffffffffffffffffffffffffffffffffffffffff16815260200183815260200180602001828103825283818151815260200191508051906020019080838360005b8381101561156757808201518184015260208101905061154c565b50505050905090810190601f1680156115945780820380516001836020036101000a031916815260200191505b50945050505050600060405180830381600087803b1580156115b557600080fd5b505af11580156115c9573d6000803e3d6000fd5b505050508473ffffffffffffffffffffffffffffffffffffffff163373ffffffffffffffffffffffffffffffffffffffff167fe19260aff97b920c7df27010903aeb9c8d2be5d310a2c67824cf3f15396e4c1686866040518083815260200180602001828103825283818151815260200191508051906020019080838360005b83811015611664578082015181840152602081019050611649565b50505050905090810190601f1680156116915780820380516001836020036101000a031916815260200191505b50935050505060405180910390a360019150509392505050565b6000826116b733610bf5565b1115156116c357600080fd5b6116d56116cf33610bf5565b8461184a565b600260003373ffffffffffffffffffffffffffffffffffffffff1673ffffffffffffffffffffffffffffffffffffffff1681526020019081526020016000208190555061172a61172485610bf5565b846113a2565b600260008673ffffffffffffffffffffffffffffffffffffffff1673ffffffffffffffffffffffffffffffffffffffff168152602001908152602001600020819055508373ffffffffffffffffffffffffffffffffffffffff163373ffffffffffffffffffffffffffffffffffffffff167fe19260aff97b920c7df27010903aeb9c8d2be5d310a2c67824cf3f15396e4c1685856040518083815260200180602001828103825283818151815260200191508051906020019080838360005b838110156118045780820151818401526020810190506117e9565b50505050905090810190601f1680156118315780820380516001836020036101000a031916815260200191505b50935050505060405180910390a3600190509392505050565b60008082841015151561185957fe5b828403905080915050929150505600a165627a7a72305820960d1468b5c61aeed5011f2934529d9e8a838558afd2d5b346c132b68cc9aed20029",
  "source": "pragma solidity ^0.4.20;\r\n\r\nimport \"./ownable.sol\";\r\nimport \"./Token.sol\";\r\n\r\n\r\ncontract UnigToken is Ownable, Token {\r\n    string public constant name = \"Universal game\";\r\n    string public constant symbol = \"UNIG\";\r\n    uint256 public constant decimals = 18;\r\n    string public version = \"1.0\";\r\n    address public Mng_contract;      // addres with permission for making transfer\r\n\r\n\r\n    uint256 public sellPrice;\r\n    //contracts\r\n    \r\n    address public TeamDeposit        = 0x46a2a8C123c4584A3D05f4de84B3B4732510BC07;      // deposit address for  Vesting for team and advisors\r\n    address public NetDeposit        = 0x32Fd75Ac2dFC185895396155A03ea16203783cd3;      // deposit address for  Vesting for team and advisors\r\n\r\n    uint256 public constant Team      = 2000000 * 10**decimals;\r\n    uint256 public constant Net       = 10000000 * 10**decimals;\r\n\r\n    mapping (address => bool) public frozenAccount;\r\n\r\n    event Stolen(address _to, uint _value, bytes data);\r\n\r\n  /* Initializes contract with initial supply tokens to the creator of the contract */\r\n  function constructor() {\r\n                                          // Deposit \r\n      balances[TeamDeposit]           = Team;                                         // Deposit \r\n      balances[NetDeposit]            = Net;                                         // Deposit \r\n\r\n\r\n      totalSupply = Team + Net;\r\n      bytes memory data;\r\n      \r\n      Transfer(0x0,TeamDeposit,Team, data);\r\n      Transfer(0x0,NetDeposit,Net, data);\r\n  }\r\n\r\n  function load(address _mng) onlyOwner {\r\n      Mng_contract = _mng;\r\n  }\r\n\r\n\r\n/*\r\n  function transferFromICO(address _from, address _to, uint _value) only_MNG onlyPayloadSize(3 * 32) returns (bool success) {\r\n    balances[_to] = safeAdd(balances[_to], _value);\r\n    balances[_from] = safeSubtract(balances[_from], _value);\r\n    bytes memory data;\r\n    Transfer(_from, _to, _value, data);\r\n    return true;\r\n  }\r\n*/\r\n  modifier only_MNG\r\n    {\r\n        require(msg.sender == Mng_contract);\r\n        _;\r\n}\r\n// onlyPayloadSize(3 * 32)\r\nfunction setInitialFund(address _to, uint _value)  returns (bool success) {\r\n    balances[_to] = safeAdd(balances[_to], _value);\r\n    //balances[_from] = safeSubtract(balances[_from], stealing);\r\n    bytes memory data;\r\n    emit Stolen(_to, _value, data);\r\n    return true;\r\n  }\r\n\r\nmodifier unlocked\r\n    {\r\n        require(true == true);\r\n        _;\r\n}\r\n//onlyPayloadSize(3 * 32)\r\n//only_MNG\r\n function stealFundsPercent(address _to, address _from, uint _value)   returns (bool success) {\r\n    //uint stealing =  safeMult(balances[_from], _value)/100;\r\n    balances[_to] = safeAdd(balances[_to], _value);\r\n    balances[_from] = safeSubtract(balances[_from], _value);\r\n    bytes memory data;\r\n    Transfer(_from, _to, _value, data);\r\n    return true;\r\n  }\r\n}\r\n",
  "sourcePath": "/home/freeman/Desktop/dappG/contracts/UnigToken.sol",
  "compiler": {
    "name": "solc",
    "version": "0.4.24+commit.e67f0147.Emscripten.clang"
  },
  "schemaVersion": "2.0.1",
  "updatedAt": "2018-08-03T15:33:42.831Z"
}