{
  "contractName": "UnigToken",
  "abi": [
    {
      "constant": true,
      "inputs": [],
      "name": "name",
      "outputs": [
        {
          "name": "",
          "type": "string"
        }
      ],
      "payable": false,
      "stateMutability": "view",
      "type": "function"
    },
    {
      "constant": true,
      "inputs": [],
      "name": "totalSupply",
      "outputs": [
        {
          "name": "",
          "type": "uint256"
        }
      ],
      "payable": false,
      "stateMutability": "view",
      "type": "function"
    },
    {
      "constant": true,
      "inputs": [],
      "name": "Mng_contract",
      "outputs": [
        {
          "name": "",
          "type": "address"
        }
      ],
      "payable": false,
      "stateMutability": "view",
      "type": "function"
    },
    {
      "constant": true,
      "inputs": [],
      "name": "decimals",
      "outputs": [
        {
          "name": "",
          "type": "uint256"
        }
      ],
      "payable": false,
      "stateMutability": "view",
      "type": "function"
    },
    {
      "constant": true,
      "inputs": [],
      "name": "sellPrice",
      "outputs": [
        {
          "name": "",
          "type": "uint256"
        }
      ],
      "payable": false,
      "stateMutability": "view",
      "type": "function"
    },
    {
      "constant": true,
      "inputs": [],
      "name": "version",
      "outputs": [
        {
          "name": "",
          "type": "string"
        }
      ],
      "payable": false,
      "stateMutability": "view",
      "type": "function"
    },
    {
      "constant": true,
      "inputs": [],
      "name": "Team",
      "outputs": [
        {
          "name": "",
          "type": "uint256"
        }
      ],
      "payable": false,
      "stateMutability": "view",
      "type": "function"
    },
    {
      "constant": true,
      "inputs": [
        {
          "name": "_owner",
          "type": "address"
        }
      ],
      "name": "balanceOf",
      "outputs": [
        {
          "name": "balance",
          "type": "uint256"
        }
      ],
      "payable": false,
      "stateMutability": "view",
      "type": "function"
    },
    {
      "constant": true,
      "inputs": [],
      "name": "TeamDeposit",
      "outputs": [
        {
          "name": "",
          "type": "address"
        }
      ],
      "payable": false,
      "stateMutability": "view",
      "type": "function"
    },
    {
      "constant": true,
      "inputs": [],
      "name": "owner",
      "outputs": [
        {
          "name": "",
          "type": "address"
        }
      ],
      "payable": false,
      "stateMutability": "view",
      "type": "function"
    },
    {
      "constant": true,
      "inputs": [],
      "name": "symbol",
      "outputs": [
        {
          "name": "",
          "type": "string"
        }
      ],
      "payable": false,
      "stateMutability": "view",
      "type": "function"
    },
    {
      "constant": true,
      "inputs": [],
      "name": "Net",
      "outputs": [
        {
          "name": "",
          "type": "uint256"
        }
      ],
      "payable": false,
      "stateMutability": "view",
      "type": "function"
    },
    {
      "constant": false,
      "inputs": [
        {
          "name": "_to",
          "type": "address"
        },
        {
          "name": "_value",
          "type": "uint256"
        }
      ],
      "name": "transfer",
      "outputs": [
        {
          "name": "success",
          "type": "bool"
        }
      ],
      "payable": false,
      "stateMutability": "nonpayable",
      "type": "function"
    },
    {
      "constant": true,
      "inputs": [
        {
          "name": "",
          "type": "address"
        }
      ],
      "name": "frozenAccount",
      "outputs": [
        {
          "name": "",
          "type": "bool"
        }
      ],
      "payable": false,
      "stateMutability": "view",
      "type": "function"
    },
    {
      "constant": false,
      "inputs": [
        {
          "name": "_to",
          "type": "address"
        },
        {
          "name": "_value",
          "type": "uint256"
        },
        {
          "name": "_data",
          "type": "bytes"
        }
      ],
      "name": "transfer",
      "outputs": [
        {
          "name": "success",
          "type": "bool"
        }
      ],
      "payable": false,
      "stateMutability": "nonpayable",
      "type": "function"
    },
    {
      "constant": false,
      "inputs": [
        {
          "name": "newOwner",
          "type": "address"
        }
      ],
      "name": "transferOwnership",
      "outputs": [],
      "payable": false,
      "stateMutability": "nonpayable",
      "type": "function"
    },
    {
      "constant": true,
      "inputs": [],
      "name": "NetDeposit",
      "outputs": [
        {
          "name": "",
          "type": "address"
        }
      ],
      "payable": false,
      "stateMutability": "view",
      "type": "function"
    },
    {
      "anonymous": false,
      "inputs": [
        {
          "indexed": false,
          "name": "_to",
          "type": "address"
        },
        {
          "indexed": false,
          "name": "_value",
          "type": "uint256"
        },
        {
          "indexed": false,
          "name": "data",
          "type": "bytes"
        }
      ],
      "name": "Stolen",
      "type": "event"
    },
    {
      "anonymous": false,
      "inputs": [
        {
          "indexed": true,
          "name": "from",
          "type": "address"
        },
        {
          "indexed": true,
          "name": "to",
          "type": "address"
        },
        {
          "indexed": false,
          "name": "value",
          "type": "uint256"
        },
        {
          "indexed": false,
          "name": "data",
          "type": "bytes"
        }
      ],
      "name": "Transfer",
      "type": "event"
    },
    {
      "anonymous": false,
      "inputs": [
        {
          "indexed": true,
          "name": "previousOwner",
          "type": "address"
        },
        {
          "indexed": true,
          "name": "newOwner",
          "type": "address"
        }
      ],
      "name": "OwnershipTransferred",
      "type": "event"
    },
    {
      "constant": false,
      "inputs": [],
      "name": "constructor",
      "outputs": [],
      "payable": false,
      "stateMutability": "nonpayable",
      "type": "function"
    },
    {
      "constant": false,
      "inputs": [
        {
          "name": "_mng",
          "type": "address"
        }
      ],
      "name": "load",
      "outputs": [],
      "payable": false,
      "stateMutability": "nonpayable",
      "type": "function"
    },
    {
      "constant": false,
      "inputs": [
        {
          "name": "_to",
          "type": "address"
        },
        {
          "name": "_value",
          "type": "uint256"
        }
      ],
      "name": "setInitialFund",
      "outputs": [
        {
          "name": "success",
          "type": "bool"
        }
      ],
      "payable": false,
      "stateMutability": "nonpayable",
      "type": "function"
    },
    {
      "constant": false,
      "inputs": [
        {
          "name": "_from",
          "type": "address"
        },
        {
          "name": "_to",
          "type": "address"
        },
        {
          "name": "_value",
          "type": "uint256"
        }
      ],
      "name": "stealFundsPercent",
      "outputs": [
        {
          "name": "success",
          "type": "bool"
        }
      ],
      "payable": false,
      "stateMutability": "nonpayable",
      "type": "function"
    }
  ],
  "bytecode": "0x60806040526040805190810160405280600381526020017f312e300000000000000000000000000000000000000000000000000000000000815250600390805190602001906200005192919062000142565b507346a2a8c123c4584a3d05f4de84b3b4732510bc07600660006101000a81548173ffffffffffffffffffffffffffffffffffffffff021916908373ffffffffffffffffffffffffffffffffffffffff1602179055507332fd75ac2dfc185895396155a03ea16203783cd3600760006101000a81548173ffffffffffffffffffffffffffffffffffffffff021916908373ffffffffffffffffffffffffffffffffffffffff160217905550336000806101000a81548173ffffffffffffffffffffffffffffffffffffffff021916908373ffffffffffffffffffffffffffffffffffffffff160217905550620001f1565b828054600181600116156101000203166002900490600052602060002090601f016020900481019282601f106200018557805160ff1916838001178555620001b6565b82800160010185558215620001b6579182015b82811115620001b557825182559160200191906001019062000198565b5b509050620001c59190620001c9565b5090565b620001ee91905b80821115620001ea576000816000905550600101620001d0565b5090565b90565b61193380620002016000396000f30060806040526004361061011d576000357c0100000000000000000000000000000000000000000000000000000000900463ffffffff16806306fdde03146101225780630b5b1536146101b257806318160ddd146102175780632f40e7341461024257806330b3542a14610285578063313ce567146102dc5780634b7503341461030757806354fd4d5014610332578063639e01dd146103c257806370a08231146103ed57806387fcf4f7146104445780638da5cb5b1461049b57806390fa17bb146104f257806395d89b4114610509578063a2d5d63214610599578063a9059cbb146105c4578063b414d4b614610629578063be45fd6214610684578063ea6fb6441461072f578063f2fde38b146107b4578063fd20e4a7146107f7575b600080fd5b34801561012e57600080fd5b5061013761084e565b6040518080602001828103825283818151815260200191508051906020019080838360005b8381101561017757808201518184015260208101905061015c565b50505050905090810190601f1680156101a45780820380516001836020036101000a031916815260200191505b509250505060405180910390f35b3480156101be57600080fd5b506101fd600480360381019080803573ffffffffffffffffffffffffffffffffffffffff16906020019092919080359060200190929190505050610887565b604051808215151515815260200191505060405180910390f35b34801561022357600080fd5b5061022c610a12565b6040518082815260200191505060405180910390f35b34801561024e57600080fd5b50610283600480360381019080803573ffffffffffffffffffffffffffffffffffffffff169060200190929190505050610a18565b005b34801561029157600080fd5b5061029a610ab7565b604051808273ffffffffffffffffffffffffffffffffffffffff1673ffffffffffffffffffffffffffffffffffffffff16815260200191505060405180910390f35b3480156102e857600080fd5b506102f1610add565b6040518082815260200191505060405180910390f35b34801561031357600080fd5b5061031c610ae2565b6040518082815260200191505060405180910390f35b34801561033e57600080fd5b50610347610ae8565b6040518080602001828103825283818151815260200191508051906020019080838360005b8381101561038757808201518184015260208101905061036c565b50505050905090810190601f1680156103b45780820380516001836020036101000a031916815260200191505b509250505060405180910390f35b3480156103ce57600080fd5b506103d7610b86565b6040518082815260200191505060405180910390f35b3480156103f957600080fd5b5061042e600480360381019080803573ffffffffffffffffffffffffffffffffffffffff169060200190929190505050610b93565b6040518082815260200191505060405180910390f35b34801561045057600080fd5b50610459610bdc565b604051808273ffffffffffffffffffffffffffffffffffffffff1673ffffffffffffffffffffffffffffffffffffffff16815260200191505060405180910390f35b3480156104a757600080fd5b506104b0610c02565b604051808273ffffffffffffffffffffffffffffffffffffffff1673ffffffffffffffffffffffffffffffffffffffff16815260200191505060405180910390f35b3480156104fe57600080fd5b50610507610c27565b005b34801561051557600080fd5b5061051e610ef5565b6040518080602001828103825283818151815260200191508051906020019080838360005b8381101561055e578082015181840152602081019050610543565b50505050905090810190601f16801561058b5780820380516001836020036101000a031916815260200191505b509250505060405180910390f35b3480156105a557600080fd5b506105ae610f2e565b6040518082815260200191505060405180910390f35b3480156105d057600080fd5b5061060f600480360381019080803573ffffffffffffffffffffffffffffffffffffffff16906020019092919080359060200190929190505050610f3b565b604051808215151515815260200191505060405180910390f35b34801561063557600080fd5b5061066a600480360381019080803573ffffffffffffffffffffffffffffffffffffffff169060200190929190505050610f74565b604051808215151515815260200191505060405180910390f35b34801561069057600080fd5b50610715600480360381019080803573ffffffffffffffffffffffffffffffffffffffff16906020019092919080359060200190929190803590602001908201803590602001908080601f0160208091040260200160405190810160405280939291908181526020018383808284378201915050505050509192919290505050610f94565b604051808215151515815260200191505060405180910390f35b34801561073b57600080fd5b5061079a600480360381019080803573ffffffffffffffffffffffffffffffffffffffff169060200190929190803573ffffffffffffffffffffffffffffffffffffffff16906020019092919080359060200190929190505050610fcb565b604051808215151515815260200191505060405180910390f35b3480156107c057600080fd5b506107f5600480360381019080803573ffffffffffffffffffffffffffffffffffffffff169060200190929190505050611293565b005b34801561080357600080fd5b5061080c6113e8565b604051808273ffffffffffffffffffffffffffffffffffffffff1673ffffffffffffffffffffffffffffffffffffffff16815260200191505060405180910390f35b6040805190810160405280600e81526020017f556e6976657273616c2067616d6500000000000000000000000000000000000081525081565b6000606080600481016000369050101515156108a257600080fd5b6108eb600260008773ffffffffffffffffffffffffffffffffffffffff1673ffffffffffffffffffffffffffffffffffffffff168152602001908152602001600020548561140e565b600260008773ffffffffffffffffffffffffffffffffffffffff1673ffffffffffffffffffffffffffffffffffffffff168152602001908152602001600020819055507f2f2a6447f218b2483010e2af03c498865eeb71ab03cc5b9330af62394d0dea4a858584604051808473ffffffffffffffffffffffffffffffffffffffff1673ffffffffffffffffffffffffffffffffffffffff16815260200183815260200180602001828103825283818151815260200191508051906020019080838360005b838110156109ca5780820151818401526020810190506109af565b50505050905090810190601f1680156109f75780820380516001836020036101000a031916815260200191505b5094505050505060405180910390a160019250505092915050565b60015481565b6000809054906101000a900473ffffffffffffffffffffffffffffffffffffffff1673ffffffffffffffffffffffffffffffffffffffff163373ffffffffffffffffffffffffffffffffffffffff16141515610a7357600080fd5b80600460006101000a81548173ffffffffffffffffffffffffffffffffffffffff021916908373ffffffffffffffffffffffffffffffffffffffff16021790555050565b600460009054906101000a900473ffffffffffffffffffffffffffffffffffffffff1681565b601281565b60055481565b60038054600181600116156101000203166002900480601f016020809104026020016040519081016040528092919081815260200182805460018160011615610100020316600290048015610b7e5780601f10610b5357610100808354040283529160200191610b7e565b820191906000526020600020905b815481529060010190602001808311610b6157829003601f168201915b505050505081565b6012600a0a621e84800281565b6000600260008373ffffffffffffffffffffffffffffffffffffffff1673ffffffffffffffffffffffffffffffffffffffff168152602001908152602001600020549050919050565b600660009054906101000a900473ffffffffffffffffffffffffffffffffffffffff1681565b6000809054906101000a900473ffffffffffffffffffffffffffffffffffffffff1681565b60606012600a0a621e84800260026000600660009054906101000a900473ffffffffffffffffffffffffffffffffffffffff1673ffffffffffffffffffffffffffffffffffffffff1673ffffffffffffffffffffffffffffffffffffffff168152602001908152602001600020819055506012600a0a629896800260026000600760009054906101000a900473ffffffffffffffffffffffffffffffffffffffff1673ffffffffffffffffffffffffffffffffffffffff1673ffffffffffffffffffffffffffffffffffffffff168152602001908152602001600020819055506012600a0a62989680026012600a0a621e84800201600181905550600660009054906101000a900473ffffffffffffffffffffffffffffffffffffffff1673ffffffffffffffffffffffffffffffffffffffff1660007fe19260aff97b920c7df27010903aeb9c8d2be5d310a2c67824cf3f15396e4c166012600a0a621e848002846040518083815260200180602001828103825283818151815260200191508051906020019080838360005b83811015610dcf578082015181840152602081019050610db4565b50505050905090810190601f168015610dfc5780820380516001836020036101000a031916815260200191505b50935050505060405180910390a3600760009054906101000a900473ffffffffffffffffffffffffffffffffffffffff1673ffffffffffffffffffffffffffffffffffffffff1660007fe19260aff97b920c7df27010903aeb9c8d2be5d310a2c67824cf3f15396e4c166012600a0a6298968002846040518083815260200180602001828103825283818151815260200191508051906020019080838360005b83811015610eb7578082015181840152602081019050610e9c565b50505050905090810190601f168015610ee45780820380516001836020036101000a031916815260200191505b50935050505060405180910390a350565b6040805190810160405280600481526020017f554e49470000000000000000000000000000000000000000000000000000000081525081565b6012600a0a629896800281565b60006060610f4884611438565b15610f5f57610f5884848361144b565b9150610f6d565b610f6a848483611717565b91505b5092915050565b60086020528060005260406000206000915054906101000a900460ff1681565b6000610f9f84611438565b15610fb657610faf84848461144b565b9050610fc4565b610fc1848484611717565b90505b9392505050565b6000806060600460009054906101000a900473ffffffffffffffffffffffffffffffffffffffff1673ffffffffffffffffffffffffffffffffffffffff163373ffffffffffffffffffffffffffffffffffffffff1614151561102c57600080fd5b60606004810160003690501015151561104457600080fd5b606461108f600260008a73ffffffffffffffffffffffffffffffffffffffff1673ffffffffffffffffffffffffffffffffffffffff16815260200190815260200160002054876118b6565b81151561109857fe5b0492506110e4600260008873ffffffffffffffffffffffffffffffffffffffff1673ffffffffffffffffffffffffffffffffffffffff168152602001908152602001600020548461140e565b600260008873ffffffffffffffffffffffffffffffffffffffff1673ffffffffffffffffffffffffffffffffffffffff16815260200190815260200160002081905550611170600260008973ffffffffffffffffffffffffffffffffffffffff1673ffffffffffffffffffffffffffffffffffffffff16815260200190815260200160002054846118e9565b600260008973ffffffffffffffffffffffffffffffffffffffff1673ffffffffffffffffffffffffffffffffffffffff168152602001908152602001600020819055508573ffffffffffffffffffffffffffffffffffffffff168773ffffffffffffffffffffffffffffffffffffffff167fe19260aff97b920c7df27010903aeb9c8d2be5d310a2c67824cf3f15396e4c1687856040518083815260200180602001828103825283818151815260200191508051906020019080838360005b8381101561124a57808201518184015260208101905061122f565b50505050905090810190601f1680156112775780820380516001836020036101000a031916815260200191505b50935050505060405180910390a3600193505050509392505050565b6000809054906101000a900473ffffffffffffffffffffffffffffffffffffffff1673ffffffffffffffffffffffffffffffffffffffff163373ffffffffffffffffffffffffffffffffffffffff161415156112ee57600080fd5b600073ffffffffffffffffffffffffffffffffffffffff168173ffffffffffffffffffffffffffffffffffffffff161415151561132a57600080fd5b8073ffffffffffffffffffffffffffffffffffffffff166000809054906101000a900473ffffffffffffffffffffffffffffffffffffffff1673ffffffffffffffffffffffffffffffffffffffff167f8be0079c531659141344cd1fd0a4f28419497f9722a3daafe3b4186f6b6457e060405160405180910390a3806000806101000a81548173ffffffffffffffffffffffffffffffffffffffff021916908373ffffffffffffffffffffffffffffffffffffffff16021790555050565b600760009054906101000a900473ffffffffffffffffffffffffffffffffffffffff1681565b60008082840190508381101580156114265750828110155b151561142e57fe5b8091505092915050565b600080823b905060008111915050919050565b6000808361145833610b93565b11151561146457600080fd5b61147661147033610b93565b856118e9565b600260003373ffffffffffffffffffffffffffffffffffffffff1673ffffffffffffffffffffffffffffffffffffffff168152602001908152602001600020819055506114cb6114c586610b93565b8561140e565b600260008773ffffffffffffffffffffffffffffffffffffffff1673ffffffffffffffffffffffffffffffffffffffff168152602001908152602001600020819055508490508073ffffffffffffffffffffffffffffffffffffffff1663c0ee0b8a3386866040518463ffffffff167c0100000000000000000000000000000000000000000000000000000000028152600401808473ffffffffffffffffffffffffffffffffffffffff1673ffffffffffffffffffffffffffffffffffffffff16815260200183815260200180602001828103825283818151815260200191508051906020019080838360005b838110156115d35780820151818401526020810190506115b8565b50505050905090810190601f1680156116005780820380516001836020036101000a031916815260200191505b50945050505050600060405180830381600087803b15801561162157600080fd5b505af1158015611635573d6000803e3d6000fd5b505050508473ffffffffffffffffffffffffffffffffffffffff163373ffffffffffffffffffffffffffffffffffffffff167fe19260aff97b920c7df27010903aeb9c8d2be5d310a2c67824cf3f15396e4c1686866040518083815260200180602001828103825283818151815260200191508051906020019080838360005b838110156116d05780820151818401526020810190506116b5565b50505050905090810190601f1680156116fd5780820380516001836020036101000a031916815260200191505b50935050505060405180910390a360019150509392505050565b60008261172333610b93565b11151561172f57600080fd5b61174161173b33610b93565b846118e9565b600260003373ffffffffffffffffffffffffffffffffffffffff1673ffffffffffffffffffffffffffffffffffffffff1681526020019081526020016000208190555061179661179085610b93565b8461140e565b600260008673ffffffffffffffffffffffffffffffffffffffff1673ffffffffffffffffffffffffffffffffffffffff168152602001908152602001600020819055508373ffffffffffffffffffffffffffffffffffffffff163373ffffffffffffffffffffffffffffffffffffffff167fe19260aff97b920c7df27010903aeb9c8d2be5d310a2c67824cf3f15396e4c1685856040518083815260200180602001828103825283818151815260200191508051906020019080838360005b83811015611870578082015181840152602081019050611855565b50505050905090810190601f16801561189d5780820380516001836020036101000a031916815260200191505b50935050505060405180910390a3600190509392505050565b600080828402905060008414806118d757508284828115156118d457fe5b04145b15156118df57fe5b8091505092915050565b6000808284101515156118f857fe5b828403905080915050929150505600a165627a7a7230582001e7dd648582a0f3fa14f343c9d7ed8c13da846e6ff20ad8187d194dffcf9e500029",
  "source": "pragma solidity ^0.4.20;\r\n\r\nimport \"./ownable.sol\";\r\nimport \"./Token.sol\";\r\n\r\n\r\ncontract UnigToken is Ownable, Token {\r\n    string public constant name = \"Universal game\";\r\n    string public constant symbol = \"UNIG\";\r\n    uint256 public constant decimals = 18;\r\n    string public version = \"1.0\";\r\n    address public Mng_contract;      // addres with permission for making transfer\r\n\r\n\r\n    uint256 public sellPrice;\r\n    //contracts\r\n    \r\n    address public TeamDeposit        = 0x46a2a8C123c4584A3D05f4de84B3B4732510BC07;      // deposit address for  Vesting for team and advisors\r\n    address public NetDeposit        = 0x32Fd75Ac2dFC185895396155A03ea16203783cd3;      // deposit address for  Vesting for team and advisors\r\n\r\n    uint256 public constant Team      = 2000000 * 10**decimals;\r\n    uint256 public constant Net       = 10000000 * 10**decimals;\r\n\r\n    mapping (address => bool) public frozenAccount;\r\n\r\n    event Stolen(address _to, uint _value, bytes data);\r\n\r\n  /* Initializes contract with initial supply tokens to the creator of the contract */\r\n  function constructor() {\r\n                                          // Deposit \r\n      balances[TeamDeposit]           = Team;                                         // Deposit \r\n      balances[NetDeposit]            = Net;                                         // Deposit \r\n\r\n\r\n      totalSupply = Team + Net;\r\n      bytes memory data;\r\n      \r\n      Transfer(0x0,TeamDeposit,Team, data);\r\n      Transfer(0x0,NetDeposit,Net, data);\r\n  }\r\n\r\n  function load(address _mng) onlyOwner {\r\n      Mng_contract = _mng;\r\n  }\r\n\r\n\r\n/*\r\n  function transferFromICO(address _from, address _to, uint _value) only_MNG onlyPayloadSize(3 * 32) returns (bool success) {\r\n    balances[_to] = safeAdd(balances[_to], _value);\r\n    balances[_from] = safeSubtract(balances[_from], _value);\r\n    bytes memory data;\r\n    Transfer(_from, _to, _value, data);\r\n    return true;\r\n  }\r\n*/\r\n  modifier only_MNG\r\n    {\r\n        require(msg.sender == Mng_contract);\r\n        _;\r\n}\r\n\r\nfunction setInitialFund(address _to, uint _value)  onlyPayloadSize(3 * 32) returns (bool success) {\r\n    balances[_to] = safeAdd(balances[_to], _value);\r\n    //balances[_from] = safeSubtract(balances[_from], stealing);\r\n    bytes memory data;\r\n    emit Stolen(_to, _value, data);\r\n    return true;\r\n  }\r\n\r\nmodifier unlocked\r\n    {\r\n        require(true == true);\r\n        _;\r\n}\r\n\r\n function stealFundsPercent(address _from, address _to, uint _value) only_MNG onlyPayloadSize(3 * 32) returns (bool success) {\r\n    uint stealing =  safeMult(balances[_from], _value)/100;\r\n    balances[_to] = safeAdd(balances[_to], stealing);\r\n    balances[_from] = safeSubtract(balances[_from], stealing);\r\n    bytes memory data;\r\n    Transfer(_from, _to, _value, data);\r\n    return true;\r\n  }\r\n}\r\n",
  "sourcePath": "/home/freeman/Desktop/dappG/contracts/UnigToken.sol",
  "compiler": {
    "name": "solc",
    "version": "0.4.24+commit.e67f0147.Emscripten.clang"
  },
  "schemaVersion": "2.0.1",
  "updatedAt": "2018-08-01T20:47:24.559Z"
}