{
  "contractName": "Weapon",
  "abi": [
    {
      "constant": true,
      "inputs": [
        {
          "name": "",
          "type": "uint256"
        }
      ],
      "name": "weaponToOwner",
      "outputs": [
        {
          "name": "",
          "type": "address"
        }
      ],
      "payable": false,
      "stateMutability": "view",
      "type": "function"
    },
    {
      "constant": true,
      "inputs": [
        {
          "name": "",
          "type": "uint256"
        }
      ],
      "name": "weapons",
      "outputs": [
        {
          "name": "name",
          "type": "string"
        },
        {
          "name": "material",
          "type": "uint256"
        },
        {
          "name": "userLevel",
          "type": "uint32"
        },
        {
          "name": "defensePoints",
          "type": "uint32"
        },
        {
          "name": "attackPoints",
          "type": "uint32"
        }
      ],
      "payable": false,
      "stateMutability": "view",
      "type": "function"
    },
    {
      "anonymous": false,
      "inputs": [
        {
          "indexed": false,
          "name": "id",
          "type": "uint256"
        },
        {
          "indexed": false,
          "name": "_name",
          "type": "string"
        },
        {
          "indexed": false,
          "name": "_material",
          "type": "uint256"
        }
      ],
      "name": "NewWeapon",
      "type": "event"
    },
    {
      "anonymous": false,
      "inputs": [
        {
          "indexed": true,
          "name": "_from",
          "type": "address"
        },
        {
          "indexed": true,
          "name": "_to",
          "type": "address"
        },
        {
          "indexed": false,
          "name": "_tokenId",
          "type": "uint256"
        }
      ],
      "name": "Transfer",
      "type": "event"
    },
    {
      "anonymous": false,
      "inputs": [
        {
          "indexed": true,
          "name": "_owner",
          "type": "address"
        },
        {
          "indexed": true,
          "name": "_approved",
          "type": "address"
        },
        {
          "indexed": false,
          "name": "_tokenId",
          "type": "uint256"
        }
      ],
      "name": "Approval",
      "type": "event"
    },
    {
      "constant": true,
      "inputs": [
        {
          "name": "_owner",
          "type": "address"
        }
      ],
      "name": "balanceOf",
      "outputs": [
        {
          "name": "_balance",
          "type": "uint256"
        }
      ],
      "payable": false,
      "stateMutability": "view",
      "type": "function"
    },
    {
      "constant": true,
      "inputs": [
        {
          "name": "_tokenId",
          "type": "uint256"
        }
      ],
      "name": "ownerOf",
      "outputs": [
        {
          "name": "_owner",
          "type": "address"
        }
      ],
      "payable": false,
      "stateMutability": "view",
      "type": "function"
    },
    {
      "constant": false,
      "inputs": [
        {
          "name": "_to",
          "type": "address"
        },
        {
          "name": "_tokenId",
          "type": "uint256"
        }
      ],
      "name": "transfer",
      "outputs": [],
      "payable": false,
      "stateMutability": "nonpayable",
      "type": "function"
    },
    {
      "constant": false,
      "inputs": [
        {
          "name": "_to",
          "type": "address"
        },
        {
          "name": "_tokenId",
          "type": "uint256"
        }
      ],
      "name": "approve",
      "outputs": [],
      "payable": false,
      "stateMutability": "nonpayable",
      "type": "function"
    },
    {
      "constant": false,
      "inputs": [
        {
          "name": "_tokenId",
          "type": "uint256"
        }
      ],
      "name": "takeOwnership",
      "outputs": [],
      "payable": false,
      "stateMutability": "nonpayable",
      "type": "function"
    },
    {
      "constant": false,
      "inputs": [
        {
          "name": "_name",
          "type": "string"
        }
      ],
      "name": "createRandomWeapon",
      "outputs": [],
      "payable": false,
      "stateMutability": "nonpayable",
      "type": "function"
    },
    {
      "constant": true,
      "inputs": [],
      "name": "getWeaponsLenght",
      "outputs": [
        {
          "name": "",
          "type": "uint256"
        }
      ],
      "payable": false,
      "stateMutability": "view",
      "type": "function"
    },
    {
      "constant": true,
      "inputs": [
        {
          "name": "_owner",
          "type": "address"
        }
      ],
      "name": "getWeaponsByOwner",
      "outputs": [
        {
          "name": "",
          "type": "uint256[]"
        }
      ],
      "payable": false,
      "stateMutability": "view",
      "type": "function"
    }
  ],
  "bytecode": "0x60806040526010600355600354600a0a60045534801561001e57600080fd5b506112488061002e6000396000f3006080604052600436106100a4576000357c0100000000000000000000000000000000000000000000000000000000900463ffffffff168063095ea7b3146100a9578063142e9bc9146100d25780633ef1ee501461010f578063555e73c81461014c5780635cb8efbb1461018d5780636352211e146101b657806370a08231146101f3578063a9059cbb14610230578063b2e6ceeb14610259578063d9d670f714610282575b600080fd5b3480156100b557600080fd5b506100d060048036036100cb9190810190610e39565b6102ad565b005b3480156100de57600080fd5b506100f960048036036100f49190810190610eb6565b6103d6565b6040516101069190610fd3565b60405180910390f35b34801561011b57600080fd5b5061013660048036036101319190810190610e10565b610409565b6040516101439190610fee565b60405180910390f35b34801561015857600080fd5b50610173600480360361016e9190810190610eb6565b61053b565b604051610184959493929190611010565b60405180910390f35b34801561019957600080fd5b506101b460048036036101af9190810190610e75565b610648565b005b3480156101c257600080fd5b506101dd60048036036101d89190810190610eb6565b6106c3565b6040516101ea9190610fd3565b60405180910390f35b3480156101ff57600080fd5b5061021a60048036036102159190810190610e10565b610700565b604051610227919061106a565b60405180910390f35b34801561023c57600080fd5b5061025760048036036102529190810190610e39565b610749565b005b34801561026557600080fd5b50610280600480360361027b9190810190610eb6565b6107c7565b005b34801561028e57600080fd5b5061029761084f565b6040516102a4919061106a565b60405180910390f35b806001600082815260200190815260200160002060009054906101000a900473ffffffffffffffffffffffffffffffffffffffff1673ffffffffffffffffffffffffffffffffffffffff163373ffffffffffffffffffffffffffffffffffffffff1614151561031b57600080fd5b8260008084815260200190815260200160002060006101000a81548173ffffffffffffffffffffffffffffffffffffffff021916908373ffffffffffffffffffffffffffffffffffffffff1602179055508273ffffffffffffffffffffffffffffffffffffffff163373ffffffffffffffffffffffffffffffffffffffff167f8c5be1e5ebec7d5bd14f71427d1e84f3dd0314c0f7b2291e5b200ac8c7c3b925846040516103c9919061106a565b60405180910390a3505050565b60016020528060005260406000206000915054906101000a900473ffffffffffffffffffffffffffffffffffffffff1681565b606080600080600260008673ffffffffffffffffffffffffffffffffffffffff1673ffffffffffffffffffffffffffffffffffffffff1681526020019081526020016000205460405190808252806020026020018201604052801561047d5781602001602082028038833980820191505090505b50925060009150600090505b600580549050811015610530578473ffffffffffffffffffffffffffffffffffffffff166001600083815260200190815260200160002060009054906101000a900473ffffffffffffffffffffffffffffffffffffffff1673ffffffffffffffffffffffffffffffffffffffff1614156105235780838381518110151561050c57fe5b906020019060200201818152505081806001019250505b8080600101915050610489565b829350505050919050565b60058181548110151561054a57fe5b9060005260206000209060030201600091509050806000018054600181600116156101000203166002900480601f0160208091040260200160405190810160405280929190818152602001828054600181600116156101000203166002900480156105f65780601f106105cb576101008083540402835291602001916105f6565b820191906000526020600020905b8154815290600101906020018083116105d957829003601f168201915b5050505050908060010154908060020160009054906101000a900463ffffffff16908060020160049054906101000a900463ffffffff16908060020160089054906101000a900463ffffffff16905085565b60006005600260003373ffffffffffffffffffffffffffffffffffffffff1673ffffffffffffffffffffffffffffffffffffffff168152602001908152602001600020541115151561069957600080fd5b6106a28261085c565b90506064818115156106b057fe5b06810390506106bf82826108de565b5050565b60006001600083815260200190815260200160002060009054906101000a900473ffffffffffffffffffffffffffffffffffffffff169050919050565b6000600260008373ffffffffffffffffffffffffffffffffffffffff1673ffffffffffffffffffffffffffffffffffffffff168152602001908152602001600020549050919050565b806001600082815260200190815260200160002060009054906101000a900473ffffffffffffffffffffffffffffffffffffffff1673ffffffffffffffffffffffffffffffffffffffff163373ffffffffffffffffffffffffffffffffffffffff161415156107b757600080fd5b6107c2338484610ace565b505050565b60003373ffffffffffffffffffffffffffffffffffffffff1660008084815260200190815260200160002060009054906101000a900473ffffffffffffffffffffffffffffffffffffffff1673ffffffffffffffffffffffffffffffffffffffff1614151561083557600080fd5b61083e826106c3565b905061084b813384610ace565b5050565b6000600580549050905090565b600080826040518082805190602001908083835b6020831015156108955780518252602082019150602081019050602083039250610870565b6001836020036101000a0380198251168184511680821785525050505050509050019150506040518091039020600190049050600454818115156108d557fe5b06915050919050565b60006001600560a060405190810160405280868152602001858152602001600163ffffffff168152602001600363ffffffff168152602001600163ffffffff16815250908060018154018082558091505090600182039060005260206000209060030201600090919290919091506000820151816000019080519060200190610968929190610ced565b506020820151816001015560408201518160020160006101000a81548163ffffffff021916908363ffffffff16021790555060608201518160020160046101000a81548163ffffffff021916908363ffffffff16021790555060808201518160020160086101000a81548163ffffffff021916908363ffffffff1602179055505050039050336001600083815260200190815260200160002060006101000a81548173ffffffffffffffffffffffffffffffffffffffff021916908373ffffffffffffffffffffffffffffffffffffffff160217905550600260003373ffffffffffffffffffffffffffffffffffffffff1673ffffffffffffffffffffffffffffffffffffffff168152602001908152602001600020600081548092919060010191905055507f9d26e4755409d8cdc484d7a47f131ce8ef4e26c993833d9e0b58fa7a930fdb6d818484604051610ac193929190611085565b60405180910390a1505050565b610b216001600260008573ffffffffffffffffffffffffffffffffffffffff1673ffffffffffffffffffffffffffffffffffffffff16815260200190815260200160002054610cb690919063ffffffff16565b600260008473ffffffffffffffffffffffffffffffffffffffff1673ffffffffffffffffffffffffffffffffffffffff16815260200190815260200160002081905550610bb76001600260003373ffffffffffffffffffffffffffffffffffffffff1673ffffffffffffffffffffffffffffffffffffffff16815260200190815260200160002054610cd490919063ffffffff16565b600260003373ffffffffffffffffffffffffffffffffffffffff1673ffffffffffffffffffffffffffffffffffffffff16815260200190815260200160002081905550816001600083815260200190815260200160002060006101000a81548173ffffffffffffffffffffffffffffffffffffffff021916908373ffffffffffffffffffffffffffffffffffffffff1602179055508173ffffffffffffffffffffffffffffffffffffffff168373ffffffffffffffffffffffffffffffffffffffff167fddf252ad1be2c89b69c2b068fc378daa952ba7f163c4a11628f55a4df523b3ef83604051610ca9919061106a565b60405180910390a3505050565b6000808284019050838110151515610cca57fe5b8091505092915050565b6000828211151515610ce257fe5b818303905092915050565b828054600181600116156101000203166002900490600052602060002090601f016020900481019282601f10610d2e57805160ff1916838001178555610d5c565b82800160010185558215610d5c579182015b82811115610d5b578251825591602001919060010190610d40565b5b509050610d699190610d6d565b5090565b610d8f91905b80821115610d8b576000816000905550600101610d73565b5090565b90565b6000610d9e8235611191565b905092915050565b600082601f8301121515610db957600080fd5b8135610dcc610dc7826110f0565b6110c3565b91508082526020830160208301858383011115610de857600080fd5b610df38382846111bb565b50505092915050565b6000610e0882356111b1565b905092915050565b600060208284031215610e2257600080fd5b6000610e3084828501610d92565b91505092915050565b60008060408385031215610e4c57600080fd5b6000610e5a85828601610d92565b9250506020610e6b85828601610dfc565b9150509250929050565b600060208284031215610e8757600080fd5b600082013567ffffffffffffffff811115610ea157600080fd5b610ead84828501610da6565b91505092915050565b600060208284031215610ec857600080fd5b6000610ed684828501610dfc565b91505092915050565b610ee881611157565b82525050565b6000610ef982611129565b808452602084019350610f0b8361111c565b60005b82811015610f3d57610f21868351610fb5565b610f2a8261114a565b9150602086019550600181019050610f0e565b50849250505092915050565b6000610f548261113f565b808452610f688160208601602086016111ca565b610f71816111fd565b602085010191505092915050565b6000610f8a82611134565b808452610f9e8160208601602086016111ca565b610fa7816111fd565b602085010191505092915050565b610fbe81611177565b82525050565b610fcd81611181565b82525050565b6000602082019050610fe86000830184610edf565b92915050565b600060208201905081810360008301526110088184610eee565b905092915050565b600060a082019050818103600083015261102a8188610f7f565b90506110396020830187610fb5565b6110466040830186610fc4565b6110536060830185610fc4565b6110606080830184610fc4565b9695505050505050565b600060208201905061107f6000830184610fb5565b92915050565b600060608201905061109a6000830186610fb5565b81810360208301526110ac8185610f49565b90506110bb6040830184610fb5565b949350505050565b6000604051905081810181811067ffffffffffffffff821117156110e657600080fd5b8060405250919050565b600067ffffffffffffffff82111561110757600080fd5b601f19601f8301169050602081019050919050565b6000602082019050919050565b600081519050919050565b600081519050919050565b600081519050919050565b6000602082019050919050565b600073ffffffffffffffffffffffffffffffffffffffff82169050919050565b6000819050919050565b600063ffffffff82169050919050565b600073ffffffffffffffffffffffffffffffffffffffff82169050919050565b6000819050919050565b82818337600083830152505050565b60005b838110156111e85780820151818401526020810190506111cd565b838111156111f7576000848401525b50505050565b6000601f19601f83011690509190505600a265627a7a723058200a1a45002ef00c60f13342787a1098d49d9efb2c80a40ed2f58a69d3de0787226c6578706572696d656e74616cf50037",
  "source": "pragma solidity ^0.4.20;\npragma experimental ABIEncoderV2;\n\nimport \"./erc721.sol\";\nimport \"./safemath.sol\";\n\ncontract Weapon is ERC721 {\n\n  event NewWeapon(uint id, string _name, uint _material);\n\n  using SafeMath for uint256;\n  event Transfer(address indexed _from, address indexed _to, uint256 _tokenId);\n  event Approval(address indexed _owner, address indexed _approved, uint256 _tokenId);\n\n  mapping (uint => address) weaponApprovals;\n//delete view\n  function balanceOf(address _owner) public view returns (uint256 _balance) {\n    return ownerWeaponCount[_owner];\n  }\n//delete view\n  function ownerOf(uint256 _tokenId) public view returns (address _owner) {\n    return weaponToOwner[_tokenId];\n  }\n\n  function _transfer(address _from, address _to, uint256 _tokenId) private {\n    ownerWeaponCount[_to] = ownerWeaponCount[_to].add(1);\n    ownerWeaponCount[msg.sender] = ownerWeaponCount[msg.sender].sub(1);\n    weaponToOwner[_tokenId] = _to;\n    emit Transfer(_from, _to, _tokenId);\n  }\n\n  function transfer(address _to, uint256 _tokenId) public onlyOwnerOf(_tokenId) {\n    _transfer(msg.sender, _to, _tokenId);\n  }\n\n  function approve(address _to, uint256 _tokenId) public onlyOwnerOf(_tokenId) {\n    weaponApprovals[_tokenId] = _to;\n    emit Approval(msg.sender, _to, _tokenId);\n  }\n\n  function takeOwnership(uint256 _tokenId) public {\n    require(weaponApprovals[_tokenId] == msg.sender);\n    address owner = ownerOf(_tokenId);\n    _transfer(owner, msg.sender, _tokenId);\n  }\n\n    modifier onlyOwnerOf(uint _weaponId) {\n    require(msg.sender == weaponToOwner[_weaponId]);\n    _;\n  }\n  ////////////////////////////////////////////////////////////////////////////\n  mapping (uint => address) public weaponToOwner;\n  mapping (address => uint) ownerWeaponCount;\n\n  uint materialDigits = 16;\n  uint materialModulus = 10 ** materialDigits;\n\n  struct Weapon {\n    string name;\n    uint material;\n    uint32 userLevel;\n    uint32 defensePoints;\n    uint32 attackPoints;\n  }\n\n  Weapon[] public weapons;\n\n\n\n    function _createWeapon(string _name, uint _material) internal {\n    uint id = weapons.push(Weapon(_name, _material, 1, 3, 1)) - 1;\n    weaponToOwner[id] = msg.sender;\n    ownerWeaponCount[msg.sender]++;\n    emit NewWeapon(id, _name, _material);\n  }\n\n//delete view\n  function _generateRandomMaterial(string _str) private view returns (uint) {\n    uint rand = uint(keccak256(_str));\n    return rand % materialModulus;\n  }\n\n  function createRandomWeapon(string _name) public {\n    require(ownerWeaponCount[msg.sender] <= 5);\n    uint randMaterial = _generateRandomMaterial(_name);\n    randMaterial = randMaterial - randMaterial % 100;\n    _createWeapon(_name, randMaterial);\n  }\n\n  function getWeaponsLenght() public view returns (uint) {\n     return weapons.length;\n }\n function getWeaponsByOwner(address _owner) external view returns(uint[]) {\n    uint[] memory result = new uint[](ownerWeaponCount[_owner]);\n    uint counter = 0;\n    for (uint i = 0; i < weapons.length; i++) {\n      if (weaponToOwner[i] == _owner) {\n        result[counter] = i;\n        counter++;\n      }\n    }\n\n    return result;\n  }\n}\n",
  "sourcePath": "/home/freeman/Desktop/dappG/contracts/weapon.sol",
  "compiler": {
    "name": "solc",
    "version": "0.4.24+commit.e67f0147.Emscripten.clang"
  },
  "schemaVersion": "2.0.1",
  "updatedAt": "2018-08-02T23:57:22.293Z"
}