{
  "contractName": "Weapon",
  "abi": [
    {
      "constant": true,
      "inputs": [
        {
          "name": "",
          "type": "uint256"
        }
      ],
      "name": "weaponToOwner",
      "outputs": [
        {
          "name": "",
          "type": "address"
        }
      ],
      "payable": false,
      "stateMutability": "view",
      "type": "function"
    },
    {
      "constant": true,
      "inputs": [
        {
          "name": "",
          "type": "uint256"
        }
      ],
      "name": "weapons",
      "outputs": [
        {
          "name": "name",
          "type": "string"
        },
        {
          "name": "material",
          "type": "uint256"
        },
        {
          "name": "userLevel",
          "type": "uint32"
        },
        {
          "name": "defensePoints",
          "type": "uint32"
        },
        {
          "name": "attackPoints",
          "type": "uint32"
        },
        {
          "name": "price",
          "type": "uint256"
        }
      ],
      "payable": false,
      "stateMutability": "view",
      "type": "function"
    },
    {
      "anonymous": false,
      "inputs": [
        {
          "indexed": false,
          "name": "id",
          "type": "uint256"
        },
        {
          "indexed": false,
          "name": "_name",
          "type": "string"
        },
        {
          "indexed": false,
          "name": "_material",
          "type": "uint256"
        }
      ],
      "name": "NewWeapon",
      "type": "event"
    },
    {
      "anonymous": false,
      "inputs": [
        {
          "indexed": true,
          "name": "_from",
          "type": "address"
        },
        {
          "indexed": true,
          "name": "_to",
          "type": "address"
        },
        {
          "indexed": false,
          "name": "_tokenId",
          "type": "uint256"
        }
      ],
      "name": "Transfer",
      "type": "event"
    },
    {
      "anonymous": false,
      "inputs": [
        {
          "indexed": true,
          "name": "_owner",
          "type": "address"
        },
        {
          "indexed": true,
          "name": "_approved",
          "type": "address"
        },
        {
          "indexed": false,
          "name": "_tokenId",
          "type": "uint256"
        }
      ],
      "name": "Approval",
      "type": "event"
    },
    {
      "constant": true,
      "inputs": [
        {
          "name": "_owner",
          "type": "address"
        }
      ],
      "name": "balanceOf",
      "outputs": [
        {
          "name": "_balance",
          "type": "uint256"
        }
      ],
      "payable": false,
      "stateMutability": "view",
      "type": "function"
    },
    {
      "constant": true,
      "inputs": [
        {
          "name": "_tokenId",
          "type": "uint256"
        }
      ],
      "name": "ownerOf",
      "outputs": [
        {
          "name": "_owner",
          "type": "address"
        }
      ],
      "payable": false,
      "stateMutability": "view",
      "type": "function"
    },
    {
      "constant": false,
      "inputs": [
        {
          "name": "_to",
          "type": "address"
        },
        {
          "name": "_tokenId",
          "type": "uint256"
        }
      ],
      "name": "transfer",
      "outputs": [],
      "payable": false,
      "stateMutability": "nonpayable",
      "type": "function"
    },
    {
      "constant": false,
      "inputs": [
        {
          "name": "_to",
          "type": "address"
        },
        {
          "name": "_tokenId",
          "type": "uint256"
        }
      ],
      "name": "approve",
      "outputs": [],
      "payable": false,
      "stateMutability": "nonpayable",
      "type": "function"
    },
    {
      "constant": false,
      "inputs": [
        {
          "name": "_tokenId",
          "type": "uint256"
        }
      ],
      "name": "takeOwnership",
      "outputs": [],
      "payable": false,
      "stateMutability": "nonpayable",
      "type": "function"
    },
    {
      "constant": false,
      "inputs": [
        {
          "name": "_name",
          "type": "string"
        }
      ],
      "name": "createRandomWeapon",
      "outputs": [],
      "payable": false,
      "stateMutability": "nonpayable",
      "type": "function"
    },
    {
      "constant": true,
      "inputs": [],
      "name": "getWeaponsLenght",
      "outputs": [
        {
          "name": "",
          "type": "uint256"
        }
      ],
      "payable": false,
      "stateMutability": "view",
      "type": "function"
    },
    {
      "constant": true,
      "inputs": [
        {
          "name": "_owner",
          "type": "address"
        }
      ],
      "name": "getWeaponsByOwner",
      "outputs": [
        {
          "name": "",
          "type": "uint256[]"
        }
      ],
      "payable": false,
      "stateMutability": "view",
      "type": "function"
    }
  ],
  "bytecode": "0x60806040526010600355600354600a0a60045534801561001e57600080fd5b5061126e8061002e6000396000f3006080604052600436106100a4576000357c0100000000000000000000000000000000000000000000000000000000900463ffffffff168063095ea7b3146100a9578063142e9bc9146100d25780633ef1ee501461010f578063555e73c81461014c5780635cb8efbb1461018e5780636352211e146101b757806370a08231146101f4578063a9059cbb14610231578063b2e6ceeb1461025a578063d9d670f714610283575b600080fd5b3480156100b557600080fd5b506100d060048036036100cb9190810190610e51565b6102ae565b005b3480156100de57600080fd5b506100f960048036036100f49190810190610ece565b6103d7565b6040516101069190610feb565b60405180910390f35b34801561011b57600080fd5b5061013660048036036101319190810190610e28565b61040a565b6040516101439190611006565b60405180910390f35b34801561015857600080fd5b50610173600480360361016e9190810190610ece565b61053c565b60405161018596959493929190611028565b60405180910390f35b34801561019a57600080fd5b506101b560048036036101b09190810190610e8d565b61064f565b005b3480156101c357600080fd5b506101de60048036036101d99190810190610ece565b6106ca565b6040516101eb9190610feb565b60405180910390f35b34801561020057600080fd5b5061021b60048036036102169190810190610e28565b610707565b6040516102289190611090565b60405180910390f35b34801561023d57600080fd5b5061025860048036036102539190810190610e51565b610750565b005b34801561026657600080fd5b50610281600480360361027c9190810190610ece565b6107ce565b005b34801561028f57600080fd5b50610298610856565b6040516102a59190611090565b60405180910390f35b806001600082815260200190815260200160002060009054906101000a900473ffffffffffffffffffffffffffffffffffffffff1673ffffffffffffffffffffffffffffffffffffffff163373ffffffffffffffffffffffffffffffffffffffff1614151561031c57600080fd5b8260008084815260200190815260200160002060006101000a81548173ffffffffffffffffffffffffffffffffffffffff021916908373ffffffffffffffffffffffffffffffffffffffff1602179055508273ffffffffffffffffffffffffffffffffffffffff163373ffffffffffffffffffffffffffffffffffffffff167f8c5be1e5ebec7d5bd14f71427d1e84f3dd0314c0f7b2291e5b200ac8c7c3b925846040516103ca9190611090565b60405180910390a3505050565b60016020528060005260406000206000915054906101000a900473ffffffffffffffffffffffffffffffffffffffff1681565b606080600080600260008673ffffffffffffffffffffffffffffffffffffffff1673ffffffffffffffffffffffffffffffffffffffff1681526020019081526020016000205460405190808252806020026020018201604052801561047e5781602001602082028038833980820191505090505b50925060009150600090505b600580549050811015610531578473ffffffffffffffffffffffffffffffffffffffff166001600083815260200190815260200160002060009054906101000a900473ffffffffffffffffffffffffffffffffffffffff1673ffffffffffffffffffffffffffffffffffffffff1614156105245780838381518110151561050d57fe5b906020019060200201818152505081806001019250505b808060010191505061048a565b829350505050919050565b60058181548110151561054b57fe5b9060005260206000209060040201600091509050806000018054600181600116156101000203166002900480601f0160208091040260200160405190810160405280929190818152602001828054600181600116156101000203166002900480156105f75780601f106105cc576101008083540402835291602001916105f7565b820191906000526020600020905b8154815290600101906020018083116105da57829003601f168201915b5050505050908060010154908060020160009054906101000a900463ffffffff16908060020160049054906101000a900463ffffffff16908060020160089054906101000a900463ffffffff16908060030154905086565b60006005600260003373ffffffffffffffffffffffffffffffffffffffff1673ffffffffffffffffffffffffffffffffffffffff16815260200190815260200160002054111515156106a057600080fd5b6106a982610863565b90506064818115156106b757fe5b06810390506106c682826108e5565b5050565b60006001600083815260200190815260200160002060009054906101000a900473ffffffffffffffffffffffffffffffffffffffff169050919050565b6000600260008373ffffffffffffffffffffffffffffffffffffffff1673ffffffffffffffffffffffffffffffffffffffff168152602001908152602001600020549050919050565b806001600082815260200190815260200160002060009054906101000a900473ffffffffffffffffffffffffffffffffffffffff1673ffffffffffffffffffffffffffffffffffffffff163373ffffffffffffffffffffffffffffffffffffffff161415156107be57600080fd5b6107c9338484610ae6565b505050565b60003373ffffffffffffffffffffffffffffffffffffffff1660008084815260200190815260200160002060009054906101000a900473ffffffffffffffffffffffffffffffffffffffff1673ffffffffffffffffffffffffffffffffffffffff1614151561083c57600080fd5b610845826106ca565b9050610852813384610ae6565b5050565b6000600580549050905090565b600080826040518082805190602001908083835b60208310151561089c5780518252602082019150602081019050602083039250610877565b6001836020036101000a0380198251168184511680821785525050505050509050019150506040518091039020600190049050600454818115156108dc57fe5b06915050919050565b60006001600560c060405190810160405280868152602001858152602001600163ffffffff168152602001600363ffffffff168152602001600163ffffffff1681526020016000815250908060018154018082558091505090600182039060005260206000209060040201600090919290919091506000820151816000019080519060200190610976929190610d05565b506020820151816001015560408201518160020160006101000a81548163ffffffff021916908363ffffffff16021790555060608201518160020160046101000a81548163ffffffff021916908363ffffffff16021790555060808201518160020160086101000a81548163ffffffff021916908363ffffffff16021790555060a082015181600301555050039050336001600083815260200190815260200160002060006101000a81548173ffffffffffffffffffffffffffffffffffffffff021916908373ffffffffffffffffffffffffffffffffffffffff160217905550600260003373ffffffffffffffffffffffffffffffffffffffff1673ffffffffffffffffffffffffffffffffffffffff168152602001908152602001600020600081548092919060010191905055507f9d26e4755409d8cdc484d7a47f131ce8ef4e26c993833d9e0b58fa7a930fdb6d818484604051610ad9939291906110ab565b60405180910390a1505050565b610b396001600260008573ffffffffffffffffffffffffffffffffffffffff1673ffffffffffffffffffffffffffffffffffffffff16815260200190815260200160002054610cce90919063ffffffff16565b600260008473ffffffffffffffffffffffffffffffffffffffff1673ffffffffffffffffffffffffffffffffffffffff16815260200190815260200160002081905550610bcf6001600260003373ffffffffffffffffffffffffffffffffffffffff1673ffffffffffffffffffffffffffffffffffffffff16815260200190815260200160002054610cec90919063ffffffff16565b600260003373ffffffffffffffffffffffffffffffffffffffff1673ffffffffffffffffffffffffffffffffffffffff16815260200190815260200160002081905550816001600083815260200190815260200160002060006101000a81548173ffffffffffffffffffffffffffffffffffffffff021916908373ffffffffffffffffffffffffffffffffffffffff1602179055508173ffffffffffffffffffffffffffffffffffffffff168373ffffffffffffffffffffffffffffffffffffffff167fddf252ad1be2c89b69c2b068fc378daa952ba7f163c4a11628f55a4df523b3ef83604051610cc19190611090565b60405180910390a3505050565b6000808284019050838110151515610ce257fe5b8091505092915050565b6000828211151515610cfa57fe5b818303905092915050565b828054600181600116156101000203166002900490600052602060002090601f016020900481019282601f10610d4657805160ff1916838001178555610d74565b82800160010185558215610d74579182015b82811115610d73578251825591602001919060010190610d58565b5b509050610d819190610d85565b5090565b610da791905b80821115610da3576000816000905550600101610d8b565b5090565b90565b6000610db682356111b7565b905092915050565b600082601f8301121515610dd157600080fd5b8135610de4610ddf82611116565b6110e9565b91508082526020830160208301858383011115610e0057600080fd5b610e0b8382846111e1565b50505092915050565b6000610e2082356111d7565b905092915050565b600060208284031215610e3a57600080fd5b6000610e4884828501610daa565b91505092915050565b60008060408385031215610e6457600080fd5b6000610e7285828601610daa565b9250506020610e8385828601610e14565b9150509250929050565b600060208284031215610e9f57600080fd5b600082013567ffffffffffffffff811115610eb957600080fd5b610ec584828501610dbe565b91505092915050565b600060208284031215610ee057600080fd5b6000610eee84828501610e14565b91505092915050565b610f008161117d565b82525050565b6000610f118261114f565b808452602084019350610f2383611142565b60005b82811015610f5557610f39868351610fcd565b610f4282611170565b9150602086019550600181019050610f26565b50849250505092915050565b6000610f6c82611165565b808452610f808160208601602086016111f0565b610f8981611223565b602085010191505092915050565b6000610fa28261115a565b808452610fb68160208601602086016111f0565b610fbf81611223565b602085010191505092915050565b610fd68161119d565b82525050565b610fe5816111a7565b82525050565b60006020820190506110006000830184610ef7565b92915050565b600060208201905081810360008301526110208184610f06565b905092915050565b600060c08201905081810360008301526110428189610f97565b90506110516020830188610fcd565b61105e6040830187610fdc565b61106b6060830186610fdc565b6110786080830185610fdc565b61108560a0830184610fcd565b979650505050505050565b60006020820190506110a56000830184610fcd565b92915050565b60006060820190506110c06000830186610fcd565b81810360208301526110d28185610f61565b90506110e16040830184610fcd565b949350505050565b6000604051905081810181811067ffffffffffffffff8211171561110c57600080fd5b8060405250919050565b600067ffffffffffffffff82111561112d57600080fd5b601f19601f8301169050602081019050919050565b6000602082019050919050565b600081519050919050565b600081519050919050565b600081519050919050565b6000602082019050919050565b600073ffffffffffffffffffffffffffffffffffffffff82169050919050565b6000819050919050565b600063ffffffff82169050919050565b600073ffffffffffffffffffffffffffffffffffffffff82169050919050565b6000819050919050565b82818337600083830152505050565b60005b8381101561120e5780820151818401526020810190506111f3565b8381111561121d576000848401525b50505050565b6000601f19601f83011690509190505600a265627a7a72305820c531ee054699373b52eb2a9274cc2ddfe26b91ede7e156be82bcb199a52676616c6578706572696d656e74616cf50037",
  "source": "pragma solidity ^0.4.20;\npragma experimental ABIEncoderV2;\n\nimport \"./erc721.sol\";\nimport \"./safemath.sol\";\n\ncontract Weapon is ERC721 {\n\n  event NewWeapon(uint id, string _name, uint _material);\n\n  using SafeMath for uint256;\n  event Transfer(address indexed _from, address indexed _to, uint256 _tokenId);\n  event Approval(address indexed _owner, address indexed _approved, uint256 _tokenId);\n\n  mapping (uint => address) weaponApprovals;\n//delete view\n  function balanceOf(address _owner) public view returns (uint256 _balance) {\n    return ownerWeaponCount[_owner];\n  }\n//delete view\n  function ownerOf(uint256 _tokenId) public view returns (address _owner) {\n    return weaponToOwner[_tokenId];\n  }\n\n  function _transfer(address _from, address _to, uint256 _tokenId) private {\n    ownerWeaponCount[_to] = ownerWeaponCount[_to].add(1);\n    ownerWeaponCount[msg.sender] = ownerWeaponCount[msg.sender].sub(1);\n    weaponToOwner[_tokenId] = _to;\n    emit Transfer(_from, _to, _tokenId);\n  }\n\n  function transfer(address _to, uint256 _tokenId) public onlyOwnerOf(_tokenId) {\n    _transfer(msg.sender, _to, _tokenId);\n  }\n\n  function approve(address _to, uint256 _tokenId) public onlyOwnerOf(_tokenId) {\n    weaponApprovals[_tokenId] = _to;\n    emit Approval(msg.sender, _to, _tokenId);\n  }\n\n  function takeOwnership(uint256 _tokenId) public {\n    require(weaponApprovals[_tokenId] == msg.sender);\n    address owner = ownerOf(_tokenId);\n    _transfer(owner, msg.sender, _tokenId);\n  }\n\n    modifier onlyOwnerOf(uint _weaponId) {\n    require(msg.sender == weaponToOwner[_weaponId]);\n    _;\n  }\n  ////////////////////////////////////////////////////////////////////////////\n  mapping (uint => address) public weaponToOwner;\n  mapping (address => uint) ownerWeaponCount;\n\n  uint materialDigits = 16;\n  uint materialModulus = 10 ** materialDigits;\n\n  struct Weapon {\n    string name;\n    uint material;\n    uint32 userLevel;\n    uint32 defensePoints;\n    uint32 attackPoints;\n    uint price;\n  }\n\n  Weapon[] public weapons;\n\n\n\n    function _createWeapon(string _name, uint _material) internal {\n    uint id = weapons.push(Weapon(_name, _material, 1, 3, 1,0)) - 1;\n    weaponToOwner[id] = msg.sender;\n    ownerWeaponCount[msg.sender]++;\n    emit NewWeapon(id, _name, _material);\n  }\n\n//delete view\n  function _generateRandomMaterial(string _str) private view returns (uint) {\n    uint rand = uint(keccak256(_str));\n    return rand % materialModulus;\n  }\n\n  function createRandomWeapon(string _name) public {\n    require(ownerWeaponCount[msg.sender] <= 5);\n    uint randMaterial = _generateRandomMaterial(_name);\n    randMaterial = randMaterial - randMaterial % 100;\n    _createWeapon(_name, randMaterial);\n  }\n\n  function getWeaponsLenght() public view returns (uint) {\n     return weapons.length;\n }\n function getWeaponsByOwner(address _owner) external view returns(uint[]) {\n    uint[] memory result = new uint[](ownerWeaponCount[_owner]);\n    uint counter = 0;\n    for (uint i = 0; i < weapons.length; i++) {\n      if (weaponToOwner[i] == _owner) {\n        result[counter] = i;\n        counter++;\n      }\n    }\n\n    return result;\n  }\n}\n",
  "sourcePath": "/home/freeman/Desktop/dappG/contracts/weapon.sol",
  "compiler": {
    "name": "solc",
    "version": "0.4.24+commit.e67f0147.Emscripten.clang"
  },
  "schemaVersion": "2.0.1",
  "updatedAt": "2018-08-03T15:33:42.854Z"
}