{
  "contractName": "Weapon",
  "abi": [
    {
      "constant": true,
      "inputs": [
        {
          "name": "",
          "type": "uint256"
        }
      ],
      "name": "weaponToOwner",
      "outputs": [
        {
          "name": "",
          "type": "address"
        }
      ],
      "payable": false,
      "stateMutability": "view",
      "type": "function"
    },
    {
      "constant": true,
      "inputs": [
        {
          "name": "",
          "type": "uint256"
        }
      ],
      "name": "weapons",
      "outputs": [
        {
          "name": "name",
          "type": "string"
        },
        {
          "name": "material",
          "type": "uint256"
        },
        {
          "name": "userLevel",
          "type": "uint32"
        },
        {
          "name": "defensePoints",
          "type": "uint32"
        },
        {
          "name": "attackPoints",
          "type": "uint32"
        }
      ],
      "payable": false,
      "stateMutability": "view",
      "type": "function"
    },
    {
      "anonymous": false,
      "inputs": [
        {
          "indexed": false,
          "name": "id",
          "type": "uint256"
        },
        {
          "indexed": false,
          "name": "_name",
          "type": "string"
        },
        {
          "indexed": false,
          "name": "_material",
          "type": "uint256"
        }
      ],
      "name": "NewWeapon",
      "type": "event"
    },
    {
      "anonymous": false,
      "inputs": [
        {
          "indexed": true,
          "name": "_from",
          "type": "address"
        },
        {
          "indexed": true,
          "name": "_to",
          "type": "address"
        },
        {
          "indexed": false,
          "name": "_tokenId",
          "type": "uint256"
        }
      ],
      "name": "Transfer",
      "type": "event"
    },
    {
      "anonymous": false,
      "inputs": [
        {
          "indexed": true,
          "name": "_owner",
          "type": "address"
        },
        {
          "indexed": true,
          "name": "_approved",
          "type": "address"
        },
        {
          "indexed": false,
          "name": "_tokenId",
          "type": "uint256"
        }
      ],
      "name": "Approval",
      "type": "event"
    },
    {
      "constant": true,
      "inputs": [
        {
          "name": "_owner",
          "type": "address"
        }
      ],
      "name": "balanceOf",
      "outputs": [
        {
          "name": "_balance",
          "type": "uint256"
        }
      ],
      "payable": false,
      "stateMutability": "view",
      "type": "function"
    },
    {
      "constant": true,
      "inputs": [
        {
          "name": "_tokenId",
          "type": "uint256"
        }
      ],
      "name": "ownerOf",
      "outputs": [
        {
          "name": "_owner",
          "type": "address"
        }
      ],
      "payable": false,
      "stateMutability": "view",
      "type": "function"
    },
    {
      "constant": false,
      "inputs": [
        {
          "name": "_to",
          "type": "address"
        },
        {
          "name": "_tokenId",
          "type": "uint256"
        }
      ],
      "name": "transfer",
      "outputs": [],
      "payable": false,
      "stateMutability": "nonpayable",
      "type": "function"
    },
    {
      "constant": false,
      "inputs": [
        {
          "name": "_to",
          "type": "address"
        },
        {
          "name": "_tokenId",
          "type": "uint256"
        }
      ],
      "name": "approve",
      "outputs": [],
      "payable": false,
      "stateMutability": "nonpayable",
      "type": "function"
    },
    {
      "constant": false,
      "inputs": [
        {
          "name": "_tokenId",
          "type": "uint256"
        }
      ],
      "name": "takeOwnership",
      "outputs": [],
      "payable": false,
      "stateMutability": "nonpayable",
      "type": "function"
    },
    {
      "constant": false,
      "inputs": [
        {
          "name": "_name",
          "type": "string"
        }
      ],
      "name": "createRandomWeapon",
      "outputs": [],
      "payable": false,
      "stateMutability": "nonpayable",
      "type": "function"
    },
    {
      "constant": true,
      "inputs": [],
      "name": "getWeaponsLenght",
      "outputs": [
        {
          "name": "",
          "type": "uint256"
        }
      ],
      "payable": false,
      "stateMutability": "view",
      "type": "function"
    }
  ],
  "bytecode": "0x60806040526010600355600354600a0a60045534801561001e57600080fd5b50610e608061002e6000396000f300608060405260043610610099576000357c0100000000000000000000000000000000000000000000000000000000900463ffffffff168063095ea7b31461009e578063142e9bc9146100eb578063555e73c8146101585780635cb8efbb1461023e5780636352211e146102a757806370a0823114610314578063a9059cbb1461036b578063b2e6ceeb146103b8578063d9d670f7146103e5575b600080fd5b3480156100aa57600080fd5b506100e9600480360381019080803573ffffffffffffffffffffffffffffffffffffffff16906020019092919080359060200190929190505050610410565b005b3480156100f757600080fd5b5061011660048036038101908080359060200190929190505050610539565b604051808273ffffffffffffffffffffffffffffffffffffffff1673ffffffffffffffffffffffffffffffffffffffff16815260200191505060405180910390f35b34801561016457600080fd5b506101836004803603810190808035906020019092919050505061056c565b60405180806020018681526020018563ffffffff1663ffffffff1681526020018463ffffffff1663ffffffff1681526020018363ffffffff1663ffffffff168152602001828103825287818151815260200191508051906020019080838360005b838110156101ff5780820151818401526020810190506101e4565b50505050905090810190601f16801561022c5780820380516001836020036101000a031916815260200191505b50965050505050505060405180910390f35b34801561024a57600080fd5b506102a5600480360381019080803590602001908201803590602001908080601f0160208091040260200160405190810160405280939291908181526020018383808284378201915050505050509192919290505050610679565b005b3480156102b357600080fd5b506102d2600480360381019080803590602001909291905050506106f4565b604051808273ffffffffffffffffffffffffffffffffffffffff1673ffffffffffffffffffffffffffffffffffffffff16815260200191505060405180910390f35b34801561032057600080fd5b50610355600480360381019080803573ffffffffffffffffffffffffffffffffffffffff169060200190929190505050610731565b6040518082815260200191505060405180910390f35b34801561037757600080fd5b506103b6600480360381019080803573ffffffffffffffffffffffffffffffffffffffff1690602001909291908035906020019092919050505061077a565b005b3480156103c457600080fd5b506103e3600480360381019080803590602001909291905050506107f8565b005b3480156103f157600080fd5b506103fa610880565b6040518082815260200191505060405180910390f35b806001600082815260200190815260200160002060009054906101000a900473ffffffffffffffffffffffffffffffffffffffff1673ffffffffffffffffffffffffffffffffffffffff163373ffffffffffffffffffffffffffffffffffffffff1614151561047e57600080fd5b8260008084815260200190815260200160002060006101000a81548173ffffffffffffffffffffffffffffffffffffffff021916908373ffffffffffffffffffffffffffffffffffffffff1602179055508273ffffffffffffffffffffffffffffffffffffffff163373ffffffffffffffffffffffffffffffffffffffff167f8c5be1e5ebec7d5bd14f71427d1e84f3dd0314c0f7b2291e5b200ac8c7c3b925846040518082815260200191505060405180910390a3505050565b60016020528060005260406000206000915054906101000a900473ffffffffffffffffffffffffffffffffffffffff1681565b60058181548110151561057b57fe5b9060005260206000209060030201600091509050806000018054600181600116156101000203166002900480601f0160208091040260200160405190810160405280929190818152602001828054600181600116156101000203166002900480156106275780601f106105fc57610100808354040283529160200191610627565b820191906000526020600020905b81548152906001019060200180831161060a57829003601f168201915b5050505050908060010154908060020160009054906101000a900463ffffffff16908060020160049054906101000a900463ffffffff16908060020160089054906101000a900463ffffffff16905085565b60006005600260003373ffffffffffffffffffffffffffffffffffffffff1673ffffffffffffffffffffffffffffffffffffffff16815260200190815260200160002054111515156106ca57600080fd5b6106d38261088d565b90506064818115156106e157fe5b06810390506106f0828261090f565b5050565b60006001600083815260200190815260200160002060009054906101000a900473ffffffffffffffffffffffffffffffffffffffff169050919050565b6000600260008373ffffffffffffffffffffffffffffffffffffffff1673ffffffffffffffffffffffffffffffffffffffff168152602001908152602001600020549050919050565b806001600082815260200190815260200160002060009054906101000a900473ffffffffffffffffffffffffffffffffffffffff1673ffffffffffffffffffffffffffffffffffffffff163373ffffffffffffffffffffffffffffffffffffffff161415156107e857600080fd5b6107f3338484610b70565b505050565b60003373ffffffffffffffffffffffffffffffffffffffff1660008084815260200190815260200160002060009054906101000a900473ffffffffffffffffffffffffffffffffffffffff1673ffffffffffffffffffffffffffffffffffffffff1614151561086657600080fd5b61086f826106f4565b905061087c813384610b70565b5050565b6000600580549050905090565b600080826040518082805190602001908083835b6020831015156108c657805182526020820191506020810190506020830392506108a1565b6001836020036101000a03801982511681845116808217855250505050505090500191505060405180910390206001900490506004548181151561090657fe5b06915050919050565b60006001600560a060405190810160405280868152602001858152602001600163ffffffff168152602001600363ffffffff168152602001600163ffffffff16815250908060018154018082558091505090600182039060005260206000209060030201600090919290919091506000820151816000019080519060200190610999929190610d8f565b506020820151816001015560408201518160020160006101000a81548163ffffffff021916908363ffffffff16021790555060608201518160020160046101000a81548163ffffffff021916908363ffffffff16021790555060808201518160020160086101000a81548163ffffffff021916908363ffffffff1602179055505050039050336001600083815260200190815260200160002060006101000a81548173ffffffffffffffffffffffffffffffffffffffff021916908373ffffffffffffffffffffffffffffffffffffffff160217905550600260003373ffffffffffffffffffffffffffffffffffffffff1673ffffffffffffffffffffffffffffffffffffffff168152602001908152602001600020600081548092919060010191905055507f9d26e4755409d8cdc484d7a47f131ce8ef4e26c993833d9e0b58fa7a930fdb6d8184846040518084815260200180602001838152602001828103825284818151815260200191508051906020019080838360005b83811015610b2f578082015181840152602081019050610b14565b50505050905090810190601f168015610b5c5780820380516001836020036101000a031916815260200191505b5094505050505060405180910390a1505050565b610bc36001600260008573ffffffffffffffffffffffffffffffffffffffff1673ffffffffffffffffffffffffffffffffffffffff16815260200190815260200160002054610d5890919063ffffffff16565b600260008473ffffffffffffffffffffffffffffffffffffffff1673ffffffffffffffffffffffffffffffffffffffff16815260200190815260200160002081905550610c596001600260003373ffffffffffffffffffffffffffffffffffffffff1673ffffffffffffffffffffffffffffffffffffffff16815260200190815260200160002054610d7690919063ffffffff16565b600260003373ffffffffffffffffffffffffffffffffffffffff1673ffffffffffffffffffffffffffffffffffffffff16815260200190815260200160002081905550816001600083815260200190815260200160002060006101000a81548173ffffffffffffffffffffffffffffffffffffffff021916908373ffffffffffffffffffffffffffffffffffffffff1602179055508173ffffffffffffffffffffffffffffffffffffffff168373ffffffffffffffffffffffffffffffffffffffff167fddf252ad1be2c89b69c2b068fc378daa952ba7f163c4a11628f55a4df523b3ef836040518082815260200191505060405180910390a3505050565b6000808284019050838110151515610d6c57fe5b8091505092915050565b6000828211151515610d8457fe5b818303905092915050565b828054600181600116156101000203166002900490600052602060002090601f016020900481019282601f10610dd057805160ff1916838001178555610dfe565b82800160010185558215610dfe579182015b82811115610dfd578251825591602001919060010190610de2565b5b509050610e0b9190610e0f565b5090565b610e3191905b80821115610e2d576000816000905550600101610e15565b5090565b905600a165627a7a72305820d06e64c296ffeadb8dfefeeee6e08b666a5a01bc50458d140ec60a8477c0a9670029",
  "source": "pragma solidity ^0.4.20;\n\nimport \"./erc721.sol\";\nimport \"./safemath.sol\";\n\ncontract Weapon is ERC721 {\n\n  event NewWeapon(uint id, string _name, uint _material);\n\n  using SafeMath for uint256;\n  event Transfer(address indexed _from, address indexed _to, uint256 _tokenId);\n  event Approval(address indexed _owner, address indexed _approved, uint256 _tokenId);\n\n  mapping (uint => address) weaponApprovals;\n//delete view\n  function balanceOf(address _owner) public view returns (uint256 _balance) {\n    return ownerWeaponCount[_owner];\n  }\n//delete view\n  function ownerOf(uint256 _tokenId) public view returns (address _owner) {\n    return weaponToOwner[_tokenId];\n  }\n\n  function _transfer(address _from, address _to, uint256 _tokenId) private {\n    ownerWeaponCount[_to] = ownerWeaponCount[_to].add(1);\n    ownerWeaponCount[msg.sender] = ownerWeaponCount[msg.sender].sub(1);\n    weaponToOwner[_tokenId] = _to;\n    emit Transfer(_from, _to, _tokenId);\n  }\n\n  function transfer(address _to, uint256 _tokenId) public onlyOwnerOf(_tokenId) {\n    _transfer(msg.sender, _to, _tokenId);\n  }\n\n  function approve(address _to, uint256 _tokenId) public onlyOwnerOf(_tokenId) {\n    weaponApprovals[_tokenId] = _to;\n    emit Approval(msg.sender, _to, _tokenId);\n  }\n\n  function takeOwnership(uint256 _tokenId) public {\n    require(weaponApprovals[_tokenId] == msg.sender);\n    address owner = ownerOf(_tokenId);\n    _transfer(owner, msg.sender, _tokenId);\n  }\n\n    modifier onlyOwnerOf(uint _weaponId) {\n    require(msg.sender == weaponToOwner[_weaponId]);\n    _;\n  }\n  ////////////////////////////////////////////////////////////////////////////\n  mapping (uint => address) public weaponToOwner;\n  mapping (address => uint) ownerWeaponCount;\n\n  uint materialDigits = 16;\n  uint materialModulus = 10 ** materialDigits;\n\n  struct Weapon {\n    string name;\n    uint material;\n    uint32 userLevel;\n    uint32 defensePoints;\n    uint32 attackPoints;\n  }\n\n  Weapon[] public weapons;\n\n\n\n    function _createWeapon(string _name, uint _material) internal {\n    uint id = weapons.push(Weapon(_name, _material, 1, 3, 1)) - 1;\n    weaponToOwner[id] = msg.sender;\n    ownerWeaponCount[msg.sender]++;\n    emit NewWeapon(id, _name, _material);\n  }\n\n//delete view\n  function _generateRandomMaterial(string _str) private view returns (uint) {\n    uint rand = uint(keccak256(_str));\n    return rand % materialModulus;\n  }\n\n  function createRandomWeapon(string _name) public {\n    require(ownerWeaponCount[msg.sender] <= 5);\n    uint randMaterial = _generateRandomMaterial(_name);\n    randMaterial = randMaterial - randMaterial % 100;\n    _createWeapon(_name, randMaterial);\n  }\n\n  function getWeaponsLenght() public view returns (uint) {\n     return weapons.length;\n }\n}\n",
  "sourcePath": "/home/freeman/Desktop/dappG/contracts/weapon.sol",
  "compiler": {
    "name": "solc",
    "version": "0.4.24+commit.e67f0147.Emscripten.clang"
  },
  "schemaVersion": "2.0.1",
  "updatedAt": "2018-08-01T14:50:16.353Z"
}